:020000040800F2
:1000000000500020391F00085D1E0008631E000814
:10001000691E00086F1E0008751E00080000000021
:100020000000000000000000000000007B1E00082F
:10003000871E000800000000931E00089F1E000895
:10004000811F0008811F0008811F0008811F000810
:10005000811F0008811F0008811F0008811F000800
:10006000811F0008811F0008811F0008811F0008F0
:10007000811F0008811F0008811F0008811F0008E0
:10008000811F0008811F0008811F0008811F0008D0
:10009000811F0008811F0008811F0008811F0008C0
:1000A000811F0008811F0008811F0008811F0008B0
:1000B000AD1E0008811F0008811F0008811F000875
:1000C000811F0008811F0008811F0008811F000890
:1000D000811F0008811F0008811F0008811F000880
:1000E000811F0008811F0008811F00080000000018
:1000F0000000000000000000000000000000000000
:0C01000000000000000000005FF808F1A3
:10010C0010B5054C237833B9044B13B10448AFF345
:10011C0000800123237010BDEC00002000000000C3
:10012C003041000808B5034B1BB103490348AFF33A
:10013C00008008BD00000000F000002030410008E5
:10014C0080B483B000AF7860094A7B6852F82330E2
:10015C00012B06D1064A7B68002142F823100123AB
:10016C0000E0002318460C37BD4680BC704700BF2A
:10017C000801002080B483B000AF7860044A7B682B
:10018C00012142F8231000BF0C37BD4680BC7047DC
:10019C000801002080B582B000AF00237B60B6E080
:1001AC005F4A7B6852F823205E497B6841F8232024
:1001BC005D4A7B6852F8232059497B6841F823201B
:1001CC007B68002B0AD18021584802F0EDF90346D8
:1001DC001946554A7B6842F823102AE07B68012BAC
:1001EC000AD14021524802F0DFF9034619464E4A23
:1001FC007B6842F823101CE07B68022B0BD14FF478
:10020C0080714C4802F0D0F903461946464A7B6887
:10021C0042F823100DE07B68032B0AD14FF40071D8
:10022C00444802F0C1F9034619463F4A7B6842F83C
:10023C0023103B4A7B6852F823203A497B6851F8DB
:10024C0023309A4259D1364A7B6852F823203649DA
:10025C007B6851F823309A424FD1374A7B6852F869
:10026C00232031497B6851F823309A422BD02E4AF7
:10027C007B6852F8232030497B6841F823202A4AB6
:10028C007B6852F82330002B3DD17868FFF772FF62
:10029C002A4A7B6852F82330002B0AD1284B1B6862
:1002AC004FF4FA6292FBF3F226497B6841F8232063
:1002BC0029E0234B1B68FA2292FBF3F221497B685D
:1002CC0041F823201FE01F4A7B6852F823305A1E46
:1002DC001C497B6841F823201A4A7B6852F823306A
:1002EC00002B10D1144A7B68012142F82310134AC9
:1002FC007B68012142F8231005E0104A7B6800213D
:10030C0042F8231000E000BF7B6801337B607B6800
:10031C00032B7FF745AF00BF00BF0837BD4680BD3C
:10032C0010000020000000202000002000100140E0
:10033C00000C014000080140300000201801002092
:10034C00780000202801002080B500AF154B00225A
:10035C001A60154B00221A60144B00221A60144BC1
:10036C001B68002B10D0124B00221A600020FFF7E4
:10037C0001FF104B1B684FF4FA6292FBF3F30E4A29
:10038C0013600E4B00221A60064B01221A60064BBA
:10039C0001221A60054B01221A60054B01221A60DA
:1003AC0000BF80BD000000201000002020000020B5
:1003BC0030000020780000202801002018010020C7
:1003CC0080B500AF154B00225A60154B00225A60C5
:1003DC00144B00225A60144B5B68002B10D0124B4C
:1003EC0000225A600120FFF7C5FE104B1B684FF42A
:1003FC00FA6292FBF3F30E4A53600E4B00225A60E2
:10040C00064B01225A60064B01225A60054B012211
:10041C005A60054B01225A6000BF80BD00000020CD
:10042C001000002020000020300000207800002068
:10043C00280100201801002080B500AF154B0022C8
:10044C009A60154B00229A60144B00229A60144B50
:10045C009B68002B10D0124B00229A600220FFF7F1
:10046C0089FE104B1B684FF4FA6292FBF3F30E4AB1
:10047C0093600E4B00229A60064B01229A60064B49
:10048C0001229A60054B01229A60054B01229A6069
:10049C0000BF80BD000000201000002020000020C4
:1004AC0030000020780000202801002018010020D6
:1004BC0080B500AF154B0022DA60154B0022DA60D4
:1004CC00144B0022DA60144BDB68002B10D0124B5B
:1004DC000022DA600320FFF74DFE104B1B684FF42F
:1004EC00FA6292FBF3F30E4AD3600E4B0022DA60F1
:1004FC00064B0122DA60064B0122DA60054B012221
:10050C00DA60054B0122DA6000BF80BD00000020DC
:10051C001000002020000020300000207800002077
:10052C00280100201801002080B586B000AF78604B
:10053C00144A07F1080307CA03C31A8000237B611E
:10054C0018E010227B6902FA03F399B207F1080252
:10055C007B6813441B781A467B6942FA03F3DBB2BF
:10056C0003F00103DBB21A46074802F034F87B694A
:10057C0001337B617B69062BE3DD00BF00BF1837BD
:10058C00BD4680BD48410008000C014080B582B0DA
:10059C0000AF78603D4A7B6852F823301846FFF76D
:1005AC00C3FF7B68032B6BD801A252F823F000BF6A
:1005BC00CD050008FD0500082D0600085D060008A5
:1005CC00334B01221A6000221021324802F003F84A
:1005DC00012220212F4801F0FEFF012240212D484D
:1005EC0001F0F9FF012280212A4801F0F4FF48E0D4
:1005FC00274B02221A6001221021264801F0EBFF42
:10060C0000222021234801F0E6FF0122402121484D
:10061C0001F0E1FF012280211E4801F0DCFF30E0F7
:10062C001B4B03221A60012210211A4801F0D3FF40
:10063C0001222021174801F0CEFF0022402115484D
:10064C0001F0C9FF01228021124801F0C4FF18E01B
:10065C000F4B00221A60012210210E4801F0BBFF43
:10066C00012220210B4801F0B6FF0122402109484C
:10067C0001F0B1FF00228021064801F0ACFF00E040
:10068C0000BF00BF0837BD4680BD00BF4000002042
:10069C00380100200008014080B400AF9B4B1A6861
:1006AC009B4B1B689A4221DC994B1A68974B1B6831
:1006BC00D31A0133974A82FB03129210DB17D31A19
:1006CC00954A1360924B1A68904B1B68D31A591CAD
:1006DC00904B83FB01239A10CB17D21A13469B0025
:1006EC0013445B00CA1A8C4B5A605DE0884B1A6845
:1006FC008A4B1B681A44854B1B689A4227DB844B38
:10070C001A68864B1B681A44804B1B68D31A01333A
:10071C00804A82FB03129210DB17D31A7E4A1360B5
:10072C007B4B1A687D4B1B681A44784B1B68D31A99
:10073C00591C784B83FB01239A10CB17D21A134602
:10074C009B0013445B00CA1A734B5A602CE0704B2D
:10075C001A68724B1B681A44714B1B681A446B4B1A
:10076C001B68D31A01336B4A82FB03129210DB17FE
:10077C00D31A694A1360664B1A68684B1B681A4493
:10078C00674B1B681A44614B1B68D31A591C614B8D
:10079C0083FB01239A10CB17D21A13469B001344E8
:1007AC005B00CA1A5C4B5A60584B1B680133574AA2
:1007BC001360574B1A685A4B1B681A44574B1B68EB
:1007CC001A44524B1B689A4202DA504B01221A60AF
:1007DC00544B1A68514B1B689A4221DC4F4B1A68D8
:1007EC00504B1B68D31A01334A4A82FB03129210F6
:1007FC00DB17D31A484A9360484B1A68494B1B685D
:10080C00D31A591C434B83FB01239A10CB17D21AD2
:10081C0013469B0013445B00CA1A3F4BDA605DE041
:10082C003F4B1A683D4B1B681A443E4B1B689A425F
:10083C0027DB3B4B1A68394B1B681A44394B1B6836
:10084C00D31A0133334A82FB03129210DB17D31AEB
:10085C00314A9360324B1A68304B1B681A44314B47
:10086C001B68D31A591C2B4B83FB01239A10CB17F3
:10087C00D21A13469B0013445B00CA1A264BDA604B
:10088C002CE0234B1A68254B1B681A44244B1B681D
:10089C001A44244B1B68D31A01331E4A82FB0312E1
:1008AC009210DB17D31A1C4A9360194B1A681B4B16
:1008BC001B681A441A4B1B681A441A4B1B68D31A30
:1008CC00591C144B83FB01239A10CB17D21A1346D5
:1008DC009B0013445B00CA1A0F4BDA60114B1B6868
:1008EC000133104A13600A4B1A680D4B1B681A44EB
:1008FC000A4B1B681A440B4B1B689A4202DA094BD1
:10090C0001221A6000BFBD4680BC70475000002019
:10091C0060000020676666664000002068000020CA
:10092C00640000205400002080B500AF0320FFF7C6
:10093C0007FC0346002B13D000F0B3FD0021002070
:10094C0000F0B6FD364800F097FD364B01221A70C8
:10095C00354B01221A604FF47A71042001F06CF9C6
:10096C00304B1B78002B27D0304B1B69012B23D12C
:10097C002D4B1B68013B2C4A13602B4B1B68002B27
:10098C001ADC2B4B03221A602A4B01221A70254BBE
:10099C0000221A70274B1B78002B08D000F081FD29
:1009AC000021002000F084FD234800F065FD40F696
:1009BC00B831042001F040F91E4B1B78002B2CD0D1
:1009CC001A4B1B69012B28D1194B1B68013B184A88
:1009DC0013600021012000F06BFD184800F04CFD65
:1009EC00134B1B68002B18DC0E4B00221A70114B9A
:1009FC0000221A700F4B1B7883F00103DBB2002B23
:100A0C0008D000F04EFD0021002000F051FD0C48F4
:100A1C0000F032FD042001F02DF900BF80BD00BFB5
:100A2C0054410008450100205C00002068010020B2
:100A3C00580000204401002064410008784100085F
:100A4C007C41000880B500AF01222021044801F050
:100A5C00C2FD01220821024801F0BDFD00BF80BD8E
:100A6C00000C014080B500AF00222021044801F0A9
:100A7C00B2FD01220821024801F0ADFD00BF80BD8E
:100A8C00000C014080B500AF01222021044801F088
:100A9C00A2FD00220821024801F09DFD00BF80BD8F
:100AAC00000C014080B400AF00BFBD4680BC704755
:100ABC0080B400AF00BFBD4680BC704780B400AFAF
:100ACC0000BFBD4680BC704780B500AFFFF7BAFFD2
:100ADC00FFF7EEFF00BF80BD80B582B000AF78603D
:100AEC007B68012B0ED1164B1B7883F00103DBB214
:100AFC00002B02D0FFF7B6FF01E0FFF7A3FFFFF7D3
:100B0C00D1FF18E07B68022B0ED1FFF79BFF0C4B3B
:100B1C001B7883F00103DBB2002B02D0FFF7C8FF78
:100B2C0009E0FFF7BFFF06E07B68032B03D1FFF75B
:100B3C00A9FFFFF7C3FF00BF0837BD4680BD00BF4C
:100B4C004401002080B500AFB24B1B68322B00F281
:100B5C00E18301A252F823F0310C00083D0C00088F
:100B6C00D90F0008F1100008031200082113000827
:100B7C002113000821130008211300082113000879
:100B8C0021130008970C0008330D0008C70D00084E
:100B9C00BF0E0008211300082113000821130008C0
:100BAC002113000821130008211300081710000856
:100BBC008F100008211300082113000821130008CE
:100BCC002113000821130008211300082113000829
:100BDC002113000845110008A71100082113000873
:100BEC002113000821130008211300082113000809
:100BFC0021130008211300082113000831120008EA
:100C0C00BD1200082113000821130008211300084D
:100C1C0021130008211300082113000821130008D8
:100C2C006B0F00087B4B01221A6000F03AFC88E342
:100C3C00784B0B221A60FFF747FF774B01221A60A3
:100C4C00754B1B68754A1360754B00221A60FFF7D1
:100C5C0023FD734B1B681846FFF798FC714B1B6800
:100C6C004FF47A7202FB03F31946002000F0E4FF04
:100C7C004FF47A71012000F0DFFFFA21022000F01E
:100C8C00DBFF032000F0F6FF5BE30120FFF758FACF
:100C9C000346012B14D15F4B32221A60624B0122A6
:100CAC001A60002000F0E6FF012000F0E3FF0220B4
:100CBC0000F0E0FF5C4B1B681846FFF70DFF40E3AC
:100CCC00FFF7C0FEFFF7F4FE584B1B68012B0CD14D
:100CDC00504B0C221A60564B1B684FF47A7202FB75
:100CEC0003F31946002000F0A7FF504B5B68012B63
:100CFC0006D1FFF7D1FC4FF47A71012000F09CFF74
:100D0C004A4B9B68012B03D1FA21022000F094FF7F
:100D1C000020FFF715FA0346012B40F0FD823D4BF6
:100D2C0002221A60F8E20120FFF70AFA0346012BAF
:100D3C0014D1384B32221A603B4B01221A6000202E
:100D4C0000F098FF012000F095FF022000F092FFC8
:100D5C00354B1B681846FFF7BFFEF2E2FFF7AEFEFD
:100D6C00324B1B68012B0CD12A4B0D221A602D4BD8
:100D7C001B684FF47A7202FB03F31946002000F053
:100D8C005BFF2A4B5B68012B04D14FF47A71012075
:100D9C0000F052FF254B9B68012B03D1FA21022056
:100DAC0000F04AFF0020FFF7CBF90346012B40F07F
:100DBC00B582184B02221A60B0E20120FFF7C0F98D
:100DCC000346012B14D1134B32221A60164B01220D
:100DDC001A60002000F04EFF012000F04BFF0220B3
:100DEC0000F048FF104B1B681846FFF775FEA8E291
:100DFC00104B1B7883F00103DBB2002B1ED00E4B83
:100E0C001B7883F00103DBB2002B17D0FFF72AFE0F
:100E1C0020E000BF3C0100205400002050000020C6
:100E2C0038010020680000204001002068010020EB
:100E3C00640000204401002045010020B54B1B78C4
:100E4C00002B01D0FFF71EFEB34B1B78002B01D0FB
:100E5C00FFF7F8FDFFF726FEB04B1B68012B0CD1FA
:100E6C00AF4B0E221A60AF4B1B684FF47A7202FB29
:100E7C0003F31946002000F0DFFEA84B5B68012B42
:100E8C0004D14FF47A71012000F0D6FEA34B9B687D
:100E9C00012B03D1FA21022000F0CEFE0020FFF737
:100EAC004FF90346012B40F03B829D4B02221A6006
:100EBC0036E20120FFF744F90346012B14D1984B7D
:100ECC0032221A60984B01221A60002000F0D2FEE8
:100EDC00012000F0CFFE022000F0CCFE924B1B68EC
:100EEC001846FFF7F9FD2CE28B4B1B7883F00103BE
:100EFC00DBB2002B02D0FFF7C5FD01E0FFF7A2FD2E
:100F0C00FFF7D6FD854B1B68012B0CD1844B0B22B4
:100F1C001A60864B1B684FF47A7202FB03F3194676
:100F2C00002000F089FE7D4B5B68012B04D14FF44F
:100F3C007A71012000F080FE784B9B68012B03D165
:100F4C00FA21022000F078FE0020FFF7F9F80346A2
:100F5C00012B40F0E781724B02221A60E2E1724BE6
:100F6C001B68002B11D1704B01221A60002000F07D
:100F7C0081FE012000F07EFE022000F07BFE6A4B19
:100F8C001B681846FFF7A8FDDBE10120FFF7D8F836
:100F9C000346012B40F0C881634B1B680133624A46
:100FAC001360614B1B68002B09DD5F4B1B68032B27
:100FBC0005DC5D4B1B681846FFF78EFDB4E15A4B00
:100FCC0000221A60564B01221A60ADE1544B1522D7
:100FDC001A60FFF737FDFFF765FD554B00221A60CD
:100FEC00534B1B681846FFF7D1FAFA21022000F088
:100FFC0023FE4FF4FA71032000F01EFE002000F0D7
:10100C0039FE012000F036FE9BE1FFF71BFDFFF7D8
:10101C0049FD424B9B68012B08D1454B1B68184678
:10102C00FFF7B4FAFA21022000F006FE3B4BDB6816
:10103C00012B03D1FA21032000F0FEFD0020FFF765
:10104C007FF80346012B02D1354B03221A60012095
:10105C00FFF776F80346012B40F06881304B1622DF
:10106C001A60344B1B68622B05DD304B1B68013357
:10107C00304A13605AE12F4B1B6801332D4A136021
:10108C0054E1264B9B68012B03D1FA21022000F07E
:10109C00D3FD224BDB68012B03D1FA21032000F096
:1010AC00CBFD0120FFF74CF80346012B0FD1214B50
:1010BC001B68622B05DD1D4B1B6801331D4A136039
:1010CC003FE11C4B1B6801331A4A136039E10220C3
:1010DC00FFF736F80346012B40F02A81104B1522FE
:1010EC001A602EE10E4B1F221A60FFF7CBFCFFF7A4
:1010FC00E5FCFA21022000F09FFD4FF4FA71032069
:10110C0000F09AFD002000F0B5FD012000F0B2FDCA
:10111C0017E100BF450100204401002068010020B8
:10112C003C010020640000204001002068000020E9
:10113C003801002060000020834B9B68012B03D1F9
:10114C00FA21022000F078FD7F4BDB68012B03D1E4
:10115C00FA21032000F070FD0020FEF7F1FF03469A
:10116C00012B02D1794B04221A600120FEF7E8FF13
:10117C000346012B40F0DE80744B20221A60744B26
:10118C001B68032B03DD724B01221A60D2E0704BFB
:10119C001B6801336E4A1360CCE06B4B9B68012BD0
:1011AC0003D1FA21022000F047FD674BDB68012BCD
:1011BC0003D1FA21032000F03FFD0120FEF7C0FF10
:1011CC000346012B0CD1624B1B68032B03DD604BD8
:1011DC0001221A6004E05E4B1B6801335C4A136009
:1011EC000220FEF7ADFF0346012B40F0A580574BC4
:1011FC001F221A60A5E0554B29221A60FFF732FC1A
:10120C00FFF756FCFA21022000F016FD4FF4FA719C
:10121C00032000F011FD002000F02CFD012000F057
:10122C0029FD8EE0484B9B68012B03D1FA2102204B
:10123C0000F002FD444BDB68012B03D1FA210320A3
:10124C0000F0FAFC0020FEF77BFF0346012B14D1C3
:10125C003E4B01221A603F4B1A683D4B1B689A4269
:10126C0004DC3B4B1B6801333A4A1360394B1A6858
:10127C00374B1B681344384A13600120FEF760FF9C
:10128C000346012B5AD1314B2A221A60314B1B6871
:10129C00622B07DD304B1A682D4B1B68D31A2D4A75
:1012AC0013604BE02B4B1B6801332A4A136045E05B
:1012BC00254B9B68012B03D1FA21022000F0BCFCCA
:1012CC00214BDB68012B03D1FA21032000F0B4FC85
:1012DC000120FEF735FF0346012B11D11D4B1B6876
:1012EC00622B07DD1C4B1A68194B1B68D31A194A61
:1012FC00136026E0174B1B680133164A136020E07D
:10130C000220FEF71DFF0346012B19D10F4B29229A
:10131C001A6016E000BF14E000BF12E000BF10E03E
:10132C0000BF0EE000BF0CE000BF0AE000BF08E009
:10133C0000BF06E000BF04E000BF02E000BF00E019
:10134C0000BF00BF80BD00BF680100203C01002031
:10135C0064000020680000206000002080B586B08A
:10136C0002AF0346FB71FB7923F00F03FB73FB7990
:10137C001B01BB73FB7B43F00C03DBB23B72FB7BAF
:10138C0043F00803DBB27B72BB7B43F00C03DBB294
:10139C00BB72BB7B43F00803DBB2FB7207F10802A4
:1013AC006423009304234221034801F071FA00BF27
:1013BC001037BD4680BD00BF8401002080B586B0CB
:1013CC0002AF0346FB71FB7923F00F03FB73FB7930
:1013DC001B01BB73FB7B43F00D03DBB23B72FB7B4E
:1013EC0043F00903DBB27B72BB7B43F00D03DBB232
:1013FC00BB72BB7B43F00903DBB2FB7207F1080243
:10140C006423009304234221034801F041FA00BFF6
:10141C001037BD4680BD00BF8401002080B500AFF1
:10142C003320FFF79BFF3220FFF798FF322000F0AC
:10143C0005FE2820FFF792FF322000F0FFFD01206F
:10144C00FFF78CFF322000F0F9FD0620FFF786FF36
:10145C00322000F0F3FD0C20FFF780FF322000F06B
:10146C00EDFD0220FFF77AFF322000F0E7FD80202F
:10147C00FFF774FF00BF80BD80B582B000AF78600D
:10148C0006E07B685A1C7A601B781846FFF796FFBB
:10149C007B681B78002BF4D100BF00BF0837BD461A
:1014AC0080BD80B500AF0120FFF758FF00BF80BDA5
:1014BC0080B584B000AF786039607B68002B04D1B4
:1014CC003B68DBB2803BFB730BE07B68012B04D1E8
:1014DC003B68DBB2403BFB7303E03B68DBB2803B19
:1014EC00FB73FB7B1846FFF739FF00BF1037BD4677
:1014FC0080BD000080B500AF00F03EFD00F044F868
:10150C0000F0F8F800F07CF800F0A8F8184802F0A9
:10151C0061F9FFF783FFFFF7C4FF00210020FFF7FD
:10152C00C7FF1448FFF7A8FF00210120FFF7C0FFF9
:10153C001148FFF7A1FF00F087F9012205210F48A0
:10154C0000F06EFA01220A210D4800F069FA00F051
:10155C00CBFA4FF4FA724FF4FA710A4800F060FAC1
:10156C0000F08CFAFFF7EEFAFFF7DEF9F8E700BFB0
:10157C00D801002090410008A0410008B11C0008CF
:10158C00A1010008BD04000880B590B000AF07F1C0
:10159C00180328220021184602F0F8FC3B1D0022FB
:1015AC001A605A609A60DA601A610223BB610123E7
:1015BC00BB621023FB6200237B6307F11803184600
:1015CC0001F0BEFC0346002B01D000F037F90F23CD
:1015DC007B600023BB600023FB6000233B61002386
:1015EC007B613B1D0021184601F02AFF0346002BAE
:1015FC0001D000F023F900BF4037BD4680BD00008C
:10160C0080B500AF124B134A1A60114B124A5A6044
:10161C000F4B00229A600E4B0022DA600C4B4FF4F9
:10162C0080421A610A4B00225A61094B00229A61CE
:10163C00074B0022DA61064B00221A62044800F0C4
:10164C00E3FF0346002B01D000F0F8F800BF80BD8B
:10165C008401002000540040A086010080B586B0B3
:10166C0000AF07F1080300221A605A609A60DA6032
:10167C003B4600221A605A601D4B4FF080421A60A4
:10168C001B4B41F63F725A60194B00229A60184B63
:10169C000922DA60164B00221A61154B00229A615E
:1016AC00134802F047F80346002B01D000F0C6F8AF
:1016BC004FF48053BB6007F1080319460C4802F045
:1016CC00CBF90346002B01D000F0B8F800233B60A7
:1016DC0000237B603B461946054802F0ADFB0346F0
:1016EC00002B01D000F0AAF800BF1837BD4680BD12
:1016FC00D801002080B588B000AF07F1100300229C
:10170C001A605A609A60DA60434B9B69424A43F014
:10171C0004039361404B9B6903F00403FB60FB687B
:10172C003D4B9B693C4A43F0100393613A4B9B69D8
:10173C0003F01003BB60BB68374B9B69364A43F020
:10174C0008039361344B9B6903F008037B607B684F
:10175C000022F021314800F03EFF002210213048D9
:10176C0000F039FF002243F63B412E4800F033FFD6
:10177C00F0233B6101237B610023BB610223FB61EE
:10178C0007F110031946254800F08AFD10233B6130
:10179C0001237B610023BB610223FB6107F1100372
:1017AC0019461F4800F07CFD43F63B433B61012387
:1017BC007B610023BB610223FB6107F11003194617
:1017CC00184800F06DFD80233B6100237B610023F2
:1017DC00BB6107F110031946114800F061FD4FF48D
:1017EC0040733B6100237B610023BB6107F1100355
:1017FC0019460A4800F054FD40233B6100237B61ED
:10180C000023BB6107F110031946064800F048FDA0
:10181C0000BF2037BD4680BD0010024000080140CB
:10182C0000100140000C014080B582B000AF786020
:10183C0000F022F800BF0837BD4680BD80B400AF71
:10184C0072B600BFFEE7000080B400AF074B002269
:10185C001A60064B00225A60054B00221A60054B99
:10186C0000221A7000BFBD4680BC70475402002095
:10187C00500100205401002080B400AF0B4B1B68BA
:10188C000A330A4A13600A4B5B68002B09D0084BD9
:10189C001B689B68002B04D0054B1B689A68013AA7
:1018AC009A6000BFBD4680BC704700BF4801002055
:1018BC005402002080B584B000AF7860204B5B6888
:1018CC00002B01D1012336E01D4B1B68FB6000236C
:1018DC00BB602CE0FB685B687A689A4222D1BB68DB
:1018EC00002B04D1FB681B69154A136003E0FB68ED
:1018FC001A69BB681A61FB681B69002B08D0FB686E
:10190C001B699968FB689A68FB681B690A449A60B2
:10191C00F86802F033FB0A4B5B68013B084A5360E2
:10192C00002308E0FB68BB60FB681B69FB60FB687D
:10193C00002BCFD1012318461037BD4680BD00BF08
:10194C005402002080B584B000AF0346FB71FB79D4
:10195C001846FFF7AFFF0346002B02D00223FB73A0
:10196C0001E00023FB73FB7B18461037BD4680BD9E
:10197C0080B485B000AF7860284B5B681D2B01D913
:10198C00012345E0254B5B68002B09D1234A7B687A
:10199C001360224B5B680133204A5360002337E00D
:1019AC001E4B1B68FB600023BB600BE07B689A68D6
:1019BC00FB689B68D21A7B689A60FB68BB60FB680B
:1019CC001B69FB60FB68002B05D07B689A68FB6881
:1019DC009B689A42EAD27B68FA681A61BB68002B52
:1019EC0003D0BB687A681A6102E00C4A7B6813600A
:1019FC00FB68002B06D0FB689A687B689B68D21A40
:101A0C00FB689A60054B5B680133044A5360002302
:101A1C0018461437BD4680BC704700BF54020020E6
:101A2C0080B586B000AFF860B9607A60142002F01F
:101A3C009DFA03467B617B69BA689A607B697A6818
:101A4C00DA600D4B1B6801330B4A13600A4B1B68A1
:101A5C00DAB27B695A607B69FA681A607B6900228A
:101A6C001A617869FFF784FF7B695B68DBB2184603
:101A7C001837BD4680BD00BF5001002080B582B034
:101A8C0000AF1EE0164B1B687B60164B1B681B6877
:101A9C009847144B1B68DB68002B0BD0114B1B6851
:101AAC001868104B1B68D9680E4B1B68DB681A460C
:101ABC00FFF7B6FF0B4B1B685B68DBB21846FFF7F2
:101ACC0041FF084B5B68002B04D0064B1B689B68DE
:101ADC00002BD7D000F0AAF800BF0837BD4680BD58
:101AEC00480100205402002080B584B000AF484B60
:101AFC001B685A1C46490A60002219464548FFF7E4
:101B0C008FFF454B1B68002B1ED00023FB600CE0A5
:101B1C003F4B1B685A1C3E490A60002219463F483D
:101B2C00FFF77EFFFB680133FB603B4B1B68FA68D9
:101B3C009A42EDDB364B1B685A1C35490A60002271
:101B4C0019463748FFF76CFF314B1B685A1C30495C
:101B5C000A60002219462F48FFF762FF314B1B68C1
:101B6C00002B1ED00023BB600CE0294B1B685A1CB9
:101B7C0027490A60002219462848FFF751FFBB6825
:101B8C000133BB60274B1B68BA689A42EDDB204BD4
:101B9C001B685A1C1E490A60002219462048FFF790
:101BAC003FFF1B4B1B685A1C19490A60002219463F
:101BBC001848FFF735FF1C4B1B68002B1ED0002369
:101BCC007B600CE0124B1B685A1C11490A60002206
:101BDC0019461248FFF724FF7B6801337B60124BD8
:101BEC001B687A689A42EDDB094B1B685A1C084942
:101BFC000A60002219460A48FFF712FF00229F21B3
:101C0C000448FFF70DFF00BF1037BD4680BD00BF75
:101C1C0074000020550300086C000020CD03000860
:101C2C00450400084C0100207000002080B400AF77
:101C3C0000BFBD4680BC704780B483B000AF7860F5
:101C4C003960094B1B683A6892FBF3F207497B68D1
:101C5C0041F82320064A7B68002142F8231000BF7C
:101C6C000C37BD4680BC704778000020580100201E
:101C7C006801002080B483B000AF7860074A7B68AD
:101C8C00002142F82310064A7B68002142F82310F9
:101C9C0000BF0C37BD4680BC704700BF5801002008
:101CAC006801002080B483B000AF00237B601CE08F
:101CBC00124A7B6852F82330002B13DD0F4A7B68E5
:101CCC0052F823305A1E0D497B6841F823200B4AE9
:101CDC007B6852F82330002B04DC094A7B68012115
:101CEC0042F823107B6801337B607B68032BDFDDBC
:101CFC0000BF00BF0C37BD4680BC704758010020A8
:101D0C006801002080B485B000AF154B9B69144A64
:101D1C0043F001039361124B9B6903F00103BB6019
:101D2C00BB680F4BDB690E4A43F08053D3610C4BFD
:101D3C00DB6903F080537B607B680A4B5B68FB605C
:101D4C00FB6823F0E063FB60FB6843F00073FB600F
:101D5C00044AFB68536000BF1437BD4680BC704713
:101D6C00001002400000014080B58AB000AF7860DE
:101D7C0007F1140300221A605A609A60DA607B68DB
:101D8C001B681D4A934232D11C4B9B691B4A43F082
:101D9C0008039361194B9B6903F008033B613B6992
:101DAC004FF440737B611223BB6103233B6207F149
:101DBC0014031946124800F073FA124B5B687B62ED
:101DCC007B6A43F0E0637B627B6A43F002037B62D5
:101DDC000C4A7B6A5360094BDB69084A43F40013D5
:101DEC00D361064BDB6903F40013FB60FB6800BF97
:101DFC002837BD4680BD00BF005400400010024093
:101E0C00000C01400000014080B584B000AF786048
:101E1C007B681B68B3F1804F13D10C4BDB690B4A09
:101E2C0043F00103D361094BDB6903F00103FB6051
:101E3C00FB68002200211C2000F0FBF91C2000F0A4
:101E4C0014FA00BF1037BD4680BD00BF0010024021
:101E5C0080B400AFFEE780B400AFFEE780B400AF03
:101E6C00FEE780B400AFFEE780B400AFFEE780B4BD
:101E7C0000AF00BFBD4680BC704780B400AF00BF50
:101E8C00BD4680BC704780B400AF00BFBD4680BC6F
:101E9C00704780B500AF00F0B5F800BF80BD000002
:101EAC0080B500AF024801F0E7FC00BF80BD00BF69
:101EBC00D801002080B586B000AF7860144A154B6D
:101ECC00D31A7B617B693B61134B1B68002B02D1DE
:101EDC00114B124A1A60104B1A687B6813443A690A
:101EEC009A4207D202F018F803460C221A604FF0FF
:101EFC00FF3309E0084B1B68FB60074B1A687B68D3
:101F0C001344054A1360FB6818461837BD4680BD5C
:101F1C000050002000040000780100207002002016
:101F2C0080B400AF00BFBD4680BC7047FFF7F8FF20
:101F3C000B480C490C4A002302E0D458C45004331B
:101F4C00C4188C42F9D3094A094C002301E01360F0
:101F5C000432A242FBD301F0E5FFFFF7CBFA704746
:101F6C0000000020EC000020E0410008EC00002004
:101F7C0070020020FEE7000080B500AF084B1B6824
:101F8C00074A43F010031360032000F047F90F20B9
:101F9C0000F008F8FFF7B6FE0023184680BD00BF1E
:101FAC000020024080B582B000AF7860124B1A68F6
:101FBC00124B1B7819464FF47A73B3FBF1F3B2FB57
:101FCC00F3F3184600F05FF90346002B01D0012310
:101FDC000EE07B680F2B0AD8002279684FF0FF3097
:101FEC0000F027F9064A7B681360002300E0012308
:101FFC0018460837BD4680BD7C00002084000020B8
:10200C008000002080B400AF054B1B781A46054BAE
:10201C001B681344034A136000BFBD4680BC704765
:10202C00840000205C02002080B400AF024B1B68CF
:10203C001846BD4680BC70475C02002080B584B059
:10204C0000AF7860FFF7F0FFB8607B68FB60FB685F
:10205C00B3F1FF3F05D00A4B1B781A46FB681344BB
:10206C00FB6000BFFFF7E0FF0246BB68D31AFA68BB
:10207C009A42F7D800BF00BF1037BD4680BD00BFE5
:10208C008400002080B485B000AF78607B6803F0DA
:10209C000703FB600C4BDB68BB60BA684FF6FF03B1
:1020AC001340BB60FB681A02BB68134343F0BF6369
:1020BC0043F40033BB60044ABB68D36000BF1437E1
:1020CC00BD4680BC704700BF00ED00E080B400AF9F
:1020DC00044BDB681B0A03F007031846BD4680BCA3
:1020EC00704700BF00ED00E080B483B000AF034642
:1020FC00FB7197F90730002B0BDBFB7903F01F0208
:10210C00064997F907305B09012000FA02F241F801
:10211C00232000BF0C37BD4680BC704700E100E0B7
:10212C0080B483B000AF03463960FB7197F9073078
:10213C00002B0ADB3B68DAB20C4997F90730120125
:10214C00D2B20B4483F800230AE03B68DAB20849A8
:10215C00FB7903F00F03043B1201D2B20B441A7645
:10216C0000BF0C37BD4680BC704700BF00E100E0EB
:10217C0000ED00E080B489B000AFF860B9607A601F
:10218C00FB6803F00703FB61FB69C3F10703042B36
:10219C0028BF0423BB61FB690433062B02D9FB69FE
:1021AC00033B00E000237B614FF0FF32BB6902FA76
:1021BC0003F3DA43BB681A407B699A404FF0FF3156
:1021CC007B6901FA03F3D9437B680B401343184630
:1021DC002437BD4680BC704780B582B000AF7860B4
:1021EC007B68013BB3F1807F01D301230FE00A4AE6
:1021FC007B68013B53600F214FF0FF30FFF790FFDE
:10220C00054B00229A60044B07221A6000231846E3
:10221C000837BD4680BD00BF10E000E080B582B03D
:10222C0000AF78607868FFF72DFF00BF0837BD4618
:10223C0080BD80B586B000AF0346B9607A60FB7391
:10224C0000237B61FFF742FF78617A68B96878698F
:10225C00FFF790FF024697F90F3011461846FFF72B
:10226C005FFF00BF1837BD4680BD80B582B000AFA0
:10227C000346FB7197F907301846FFF735FF00BF8F
:10228C000837BD4680BD80B582B000AF78607868F5
:10229C00FFF7A2FF034618460837BD4680BD000075
:1022AC0080B48BB000AF7860396000237B62002370
:1022BC003B6269E101227B6A02FA03F3FB613B6832
:1022CC001B68FA691340BB61BA69FB699A4240F01A
:1022DC0058813B685B689A4A93425ED0984A934215
:1022EC0075D8984A934258D0964A93426FD8964ADA
:1022FC00934252D0944A934269D8944A93424CD018
:10230C00924A934263D8924A934246D0904A93425F
:10231C005DD8122B2AD8122B59D801A252F823F0CF
:10232C00A72300088123000893230008D523000865
:10233C00DB230008DB230008DB230008DB23000879
:10234C00DB230008DB230008DB230008DB23000869
:10235C00DB230008DB230008DB230008DB23000859
:10236C00DB230008892300089D230008794A934247
:10237C0013D02CE03B68DB683B6229E03B68DB68F0
:10238C0004333B6224E03B68DB6808333B621FE0AC
:10239C003B68DB680C333B621AE03B689B68002BA4
:1023AC0002D104233B6213E03B689B68012B05D1EF
:1023BC0008233B627B68FA691A6109E008233B62D7
:1023CC007B68FA695A6103E000233B6200E000BFBE
:1023DC00BB69FF2B01D87B6801E07B6804337B6110
:1023EC00BB69FF2B02D87B6A9B0002E07B6A083B2F
:1023FC009B003B617B691A680F213B6901FA03F36F
:10240C00DB431A40396A3B6901FA03F31A437B69CF
:10241C001A603B685B6803F08053002B00F0B180BE
:10242C004D4B9B694C4A43F0010393614A4B9B69AA
:10243C0003F00103BB60BB68484A7B6A9B0802330C
:10244C0052F82330FB607B6A03F003039B000F22DE
:10245C0002FA03F3DB43FA681340FB607B68404AE3
:10246C00934213D07B683F4A93420DD07B683E4A1F
:10247C00934207D07B683D4A934201D1032306E087
:10248C00042304E0022302E0012300E000237A6A23
:10249C0002F0030292009340FA681343FB602F4949
:1024AC007B6A9B080233FA6841F823203B685B681F
:1024BC0003F48013002B06D02D4B9A682C49BB6972
:1024CC0013438B6006E02A4B9A68BB69DB432849AF
:1024DC0013408B603B685B6803F40013002B06D041
:1024EC00234BDA682249BB691343CB6006E0204BCF
:1024FC00DA68BB69DB431E491340CB603B685B6801
:10250C0003F40033002B06D0194B5A681849BB69E9
:10251C0013434B6006E0164B5A68BB69DB43144906
:10252C0013404B603B685B6803F48033002B21D075
:10253C000F4B1A680E49BB6913430B6021E000BFB7
:10254C000000321000003110000022100000211099
:10255C000000121000001110001002400000014099
:10256C0000080140000C0140001001400014014023
:10257C00000401400B4B1A68BB69DB43094913404B
:10258C000B607B6A01337B623B681A687B6A22FAB8
:10259C0003F3002B7FF48EAE00BF00BF2C37BD467B
:1025AC0080BC70470004014080B485B000AF7860F7
:1025BC000B467B807B689A687B881340002B02D08B
:1025CC000123FB7301E00023FB73FB7B18461437DC
:1025DC00BD4680BC704780B483B000AF78600B46BA
:1025EC007B8013467B707B78002B03D07A887B68CA
:1025FC001A6103E07B881A047B681A6100BF0C37F0
:10260C00BD4680BC7047000080B584B000AF7860D8
:10261C007B68002B01D101232BE17B6893F83D30C3
:10262C00DBB2002B06D17B68002283F83C20786853
:10263C00FFF79AFB7B68242283F83D207B681B689C
:10264C001A687B681B6822F001021A607B681B68A1
:10265C001A687B681B6842F400421A607B681B682E
:10266C001A687B681B6822F400421A6001F030F88B
:10267C00F8607B685B68814A934207D8FB68804AA4
:10268C00934294BF01230023DBB206E0FB687D4A32
:10269C00934294BF01230023DBB2002B01D0012312
:1026AC00E7E0FB68784AA2FB03239B0CBB607B68CA
:1026BC001B685B6823F03F017B681B68BA680A43A0
:1026CC005A607B681B681B6A23F03F017B685B6860
:1026DC006A4A934202D8BB68013309E0BB684FF4E5
:1026EC00967202FB03F3694AA2FB03239B09013395
:1026FC007A6812680B4313627B681B68DB6923F4EE
:10270C004F4222F0FF027B685B685C498B4219D810
:10271C00FB68591E7B685B685B00B1FBF3F3591CCB
:10272C0040F6FC730B40002B0AD0FB68591E7B68EB
:10273C005B685B00B1FBF3F30133C3F30B0351E0B4
:10274C0004234FE07B689B68002B11D1FB68581E5B
:10275C007B6859680B465B000B44B0FBF3F3013309
:10276C00C3F30B03002B0CBF01230023DBB212E0DD
:10277C00FB68581E7B6859680B469B000B449900FC
:10278C000B44B0FBF3F30133C3F30B03002B0CBF6F
:10279C0001230023DBB2002B01D0012322E07B6854
:1027AC009B68002B0ED1FB68581E7B6859680B4642
:1027BC005B000B44B0FBF3F30133C3F30B0343F4A3
:1027CC0000430FE0FB68581E7B6859680B469B0062
:1027DC000B4499000B44B0FBF3F30133C3F30B032D
:1027EC0043F44043796809681343CB617B681B68E9
:1027FC001B6823F0C0017B68DA697B681B6A1A438B
:10280C007B681B680A431A607B681B689B6823F40F
:10281C00034323F0FF037A6811697A68D268114385
:10282C007A6812680B4393607B681B68DB6823F043
:10283C00FF017B685A697B689B691A437B681B683C
:10284C000A43DA607B681B681A687B681B6842F075
:10285C0001021A607B6800221A647B68202283F8CC
:10286C003D207B6800221A637B68002283F83E209F
:10287C00002318461037BD4680BD00BFA08601005E
:10288C007F841E00FF083D0083DE1B43D34D621086
:10289C0080B588B002AFF8607A601A460B467B812F
:1028AC0013463B81FFF7C0FB7861FB6893F83D3022
:1028BC00DBB2202B40F0E0807B69009319230122CE
:1028CC007049F86800F064F90346002B01D002232C
:1028DC00D3E0FB6893F83C30012B01D10223CCE010
:1028EC00FB68012283F83C20FB681B681B6803F023
:1028FC000103012B07D0FB681B681A68FB681B6877
:10290C0042F001021A60FB681B681A68FB681B68BE
:10291C0022F400621A60FB68212283F83D20FB68D8
:10292C00102283F83E20FB6800221A64FB687A6848
:10293C005A62FB683A895A85FB685B8D9AB2FB68D0
:10294C001A85FB68504ADA6279897B693A6AF868B9
:10295C0000F09CF80346002B01D001238DE00023EE
:10296C003B61FB681B685B693B61FB681B689B698F
:10297C003B613B6966E07A69396AF86800F022FAD3
:10298C000346002B0DD0FB681B6C042B07D1FB6896
:10299C001B681A68FB681B6842F400721A600123FA
:1029AC006BE0FB685B6A1A78FB681B681A61FB6852
:1029BC005B6A5A1CFB685A62FB685B8D9BB2013BDD
:1029CC009AB2FB685A85FB681B8D013B9AB2FB6877
:1029DC001A85FB681B685B6903F00403042B1BD18D
:1029EC00FB681B8D002B17D0FB685B6A1A78FB68A1
:1029FC001B681A61FB685B6A5A1CFB685A62FB68AD
:102A0C005B8D9BB2013B9AB2FB685A85FB681B8DB0
:102A1C00013B9AB2FB681A857A69396AF86800F04A
:102A2C0019FA0346002B0DD0FB681B6C042B07D145
:102A3C00FB681B681A68FB681B6842F400721A601A
:102A4C0001231AE0FB681B8D002B94D1FB681B68DB
:102A5C001A68FB681B6842F400721A60FB6820223B
:102A6C0083F83D20FB68002283F83E20FB6800229F
:102A7C0083F83C20002300E0022318461837BD469B
:102A8C0080BD00BF020010000000FFFF80B588B0C1
:102A9C0002AFF8607A603B600B467B81FB68DB6AB7
:102AAC007B617B69082B06D07B69012B03D07B698A
:102ABC0013F5803F08D1FB681B681A68FB681B681C
:102ACC0042F480721A600BE0FB681B6B122B07D16F
:102ADC00FB681B681A68FB681B6842F480721A60FA
:102AEC003B6800937B6800224FF00111F86800F0FE
:102AFC004FF80346002B0DD0FB681B681B6803F4D2
:102B0C008073B3F5807F03D1FB684FF400721A64B5
:102B1C00032335E0FB681B69B3F5804F08D17B8933
:102B2C00DBB21A46FB681B6802F0FE021A611BE05E
:102B3C007B89DB11DBB203F00603DBB263F00F031E
:102B4C00DAB2FB681B681A613B687A680E49F86850
:102B5C0000F098F80346002B01D0012310E07B898C
:102B6C00DAB2FB681B681A613B687A680749F86837
:102B7C0000F088F80346002B01D0012300E000236D
:102B8C0018461837BD4680BD080001000200010040
:102B9C0080B584B000AFF860B9603B601346FB7140
:102BAC0048E03B68B3F1FF3F44D0FFF73DFA0246E3
:102BBC00BB69D31A3A689A4202D33B68002B39D1CD
:102BCC00BB681B0CDBB2012B0DD1FB681B685B696E
:102BDC00DA43BB6813409BB2002B0CBF01230023CC
:102BEC00DBB21A460CE0FB681B689B69DA43BB68D6
:102BFC0013409BB2002B0CBF01230023DBB21A46FF
:102C0C00FB799A4216D1FB6800221A63FB682022DA
:102C1C0083F83D20FB68002283F83E20FB681B6C88
:102C2C0043F02002FB681A64FB68002283F83C2006
:102C3C00012323E0BB681B0CDBB2012B0DD1FB681D
:102C4C001B685B69DA43BB6813409BB2002B0CBF5B
:102C5C0001230023DBB21A460CE0FB681B689B695E
:102C6C00DA43BB6813409BB2002B0CBF012300233B
:102C7C00DBB21A46FB799A4293D0002318461037E0
:102C8C00BD4680BD80B584B000AFF860B9607A6095
:102C9C003B6071E0FB681B685B6903F48063B3F510
:102CAC00806F23D1FB681B681A68FB681B6842F4B1
:102CBC0000721A60FB681B686FF480625A61FB68D3
:102CCC0000221A63FB68202283F83D20FB68002257
:102CDC0083F83E20FB681B6C43F00402FB681A640B
:102CEC00FB68002283F83C20012367E07B68B3F18A
:102CFC00FF3F41D0FFF798F902463B68D31A7A6838
:102D0C009A4202D37B68002B36D1BB681B0CDBB21A
:102D1C00012B0CD1FB681B685B69DA43BB68134061
:102D2C009BB2002B14BF01230023DBB20BE0FB682A
:102D3C001B689B69DA43BB6813409BB2002B14BF22
:102D4C0001230023DBB2002B16D0FB6800221A6390
:102D5C00FB68202283F83D20FB68002283F83E208C
:102D6C00FB681B6C43F02002FB681A64FB680022B2
:102D7C0083F83C20012321E0BB681B0CDBB2012B48
:102D8C000CD1FB681B685B69DA43BB6813409BB2D0
:102D9C00002B14BF01230023DBB20BE0FB681B6884
:102DAC009B69DA43BB6813409BB2002B14BF012311
:102DBC000023DBB2002B7FF46DAF002318461037D5
:102DCC00BD4680BD80B584B000AFF860B9607A6054
:102DDC0034E0F86800F086F80346002B01D001239C
:102DEC0034E0BB68B3F1FF3F28D0FFF71DF9024672
:102DFC007B68D31ABA689A4202D3BB68002B1DD1E8
:102E0C00FB681B685B6903F08003802B16D0FB68A2
:102E1C0000221A63FB68202283F83D20FB68002205
:102E2C0083F83E20FB681B6C43F02002FB681A649D
:102E3C00FB68002283F83C20012307E0FB681B6839
:102E4C005B6903F08003802BC3D100231846103735
:102E5C00BD4680BD80B584B000AFF860B9607A60C3
:102E6C0034E0F86800F03EF80346002B01D0012353
:102E7C0034E0BB68B3F1FF3F28D0FFF7D5F802462A
:102E8C007B68D31ABA689A4202D3BB68002B1DD157
:102E9C00FB681B685B6903F00403042B16D0FB680A
:102EAC0000221A63FB68202283F83D20FB68002275
:102EBC0083F83E20FB681B6C43F02002FB681A640D
:102ECC00FB68002283F83C20012307E0FB681B68A9
:102EDC005B6903F00403042BC3D10023184610379D
:102EEC00BD4680BD80B483B000AF78607B681B6842
:102EFC005B6903F48063B3F5806F1BD17B681B683F
:102F0C006FF480625A617B6800221A637B6820220E
:102F1C0083F83D207B68002283F83E207B681B6C85
:102F2C0043F004027B681A647B68002283F83C201F
:102F3C00012300E0002318460C37BD4680BC7047C7
:102F4C0080B586B000AF78607B68002B01D101237F
:102F5C006CE27B681B6803F00103002B00F0878098
:102F6C00924B5B6803F00C03042B0CD08F4B5B680B
:102F7C0003F00C03082B12D18C4B5B6803F48033E9
:102F8C00B3F5803F0BD1894B1B6803F40033002B46
:102F9C006CD07B685B68002B68D1012346E27B68B0
:102FAC005B68B3F5803F06D1804B1B687F4A43F4C6
:102FBC00803313602EE07B685B68002B0CD17B4B5D
:102FCC001B687A4A23F480331360784B1B68774A6A
:102FDC0023F4802313601DE07B685B68B3F5A02F9E
:102FEC000CD1724B1B68714A43F4802313606F4BF6
:102FFC001B686E4A43F4803313600BE06B4B1B6809
:10300C006A4A23F480331360684B1B68674A23F4C5
:10301C00802313607B685B68002B13D0FFF704F8E8
:10302C00386108E0FFF700F802463B69D31A642BBD
:10303C0001D90323FAE15D4B1B6803F40033002B29
:10304C00F0D014E0FEF7F0FF386108E0FEF7ECFF7B
:10305C0002463B69D31A642B01D90323E6E1534B97
:10306C001B6803F40033002BF0D100E000BF7B6839
:10307C001B6803F00203002B63D04C4B5B6803F01E
:10308C000C03002B0BD0494B5B6803F00C03082B93
:10309C001CD1464B5B6803F48033002B16D1434B99
:1030AC001B6803F00203002B05D07B681B69012B06
:1030BC0001D00123BAE13D4B1B6823F0F8027B6879
:1030CC005B69DB00394913430B603AE07B681B6991
:1030DC00002B20D0364B01221A60FEF7A5FF386179
:1030EC0008E0FEF7A1FF02463B69D31A022B01D977
:1030FC0003239BE12D4B1B6803F00203002BF0D044
:10310C002A4B1B6823F0F8027B685B69DB002749BC
:10311C0013430B6015E0264B00221A60FEF784FF68
:10312C00386108E0FEF780FF02463B69D31A022B98
:10313C0001D903237AE11D4B1B6803F00203002B1A
:10314C00F0D17B681B6803F00803002B3AD07B6836
:10315C009B69002B19D0174B01221A60FEF764FFF4
:10316C00386108E0FEF760FF02463B69D31A022B78
:10317C0001D903235AE10D4B5B6A03F00203002BC8
:10318C00F0D0012000F0B8FA1CE00A4B00221A60C3
:10319C00FEF74AFF38610FE0FEF746FF02463B6937
:1031AC00D31A022B08D9032340E100BF00100240C0
:1031BC0000004242800442429E4B5B6A03F00203D1
:1031CC00002BE9D17B681B6803F00403002B00F093
:1031DC00A6800023FB75974BDB6903F08053002B13
:1031EC000DD1944BDB69934A43F08053D361914BDF
:1031FC00DB6903F08053BB60BB680123FB758E4B0E
:10320C001B6803F48073002B18D18B4B1B688A4A04
:10321C0043F480731360FEF707FF386108E0FEF794
:10322C0003FF02463B69D31A642B01D90323FDE04B
:10323C00814B1B6803F48073002BF0D07B68DB6838
:10324C00012B06D17B4B1B6A7A4A43F001031362B4
:10325C002DE07B68DB68002B0CD1764B1B6A754A22
:10326C0023F001031362734B1B6A724A23F00403AD
:10327C0013621CE07B68DB68052B0CD16D4B1B6A61
:10328C006C4A43F0040313626A4B1B6A694A43F0AD
:10329C00010313620BE0674B1B6A664A23F00103C0
:1032AC001362644B1B6A634A23F0040313627B684A
:1032BC00DB68002B15D0FEF7B7FE38610AE0FEF78D
:1032CC00B3FE02463B69D31A41F28832934201D9CC
:1032DC000323ABE0574B1B6A03F00203002BEED029
:1032EC0014E0FEF7A1FE38610AE0FEF79DFE0246EF
:1032FC003B69D31A41F28832934201D9032395E0FA
:10330C004C4B1B6A03F00203002BEED1FB7D012B0F
:10331C0005D1484BDB69474A23F08053D3617B6866
:10332C00DB69002B00F08180424B5B6803F00C03DF
:10333C00082B61D07B68DB69022B46D13F4B002206
:10334C001A60FEF771FE386108E0FEF76DFE02466A
:10335C003B69D31A022B01D9032367E0354B1B6859
:10336C0003F00073002BF0D17B681B6AB3F5803F30
:10337C0008D1304B5B6823F400327B689B682D4985
:10338C0013434B602B4B5B6823F474127B68196AF4
:10339C007B685B6A0B43274913434B60274B012225
:1033AC001A60FEF741FE386108E0FEF73DFE02466A
:1033BC003B69D31A022B01D9032337E01D4B1B6841
:1033CC0003F00073002BF0D02FE01C4B00221A608E
:1033DC00FEF72AFE386108E0FEF726FE02463B693E
:1033EC00D31A022B01D9032320E0124B1B6803F0E4
:1033FC000073002BF0D118E07B68DB69012B01D145
:10340C00012313E00B4B5B68FB60FB6803F4803219
:10341C007B681B6A9A4206D1FB6803F470127B68C6
:10342C005B6A9A4201D0012300E00023184618374A
:10343C00BD4680BD0010024000700040600042425A
:10344C0080B584B000AF786039607B68002B01D107
:10345C000123D0E06A4B1B6803F007033A689A42D9
:10346C0010D9674B1B6823F0070265493B6813436F
:10347C000B60634B1B6803F007033A689A4201D058
:10348C000123B8E07B681B6803F00203002B20D0FB
:10349C007B681B6803F00403002B05D0594B5B6859
:1034AC00584A43F4E06353607B681B6803F00803DD
:1034BC00002B05D0534B5B68524A43F46053536066
:1034CC00504B5B6823F0F0027B689B684D491343BB
:1034DC004B607B681B6803F00103002B40D07B68BA
:1034EC005B68012B07D1474B1B6803F40033002B9F
:1034FC0015D101237FE07B685B68022B07D1414B20
:10350C001B6803F00073002B09D1012373E03D4BC2
:10351C001B6803F00203002B01D101236BE0394B34
:10352C005B6823F003027B685B68364913434B608E
:10353C00FEF77AFDF8600AE0FEF776FD0246FB68BE
:10354C00D31A41F28832934201D9032353E02D4B15
:10355C005B6803F00C027B685B689B009A42EBD1C2
:10356C00274B1B6803F007033A689A4210D2244B8E
:10357C001B6823F0070222493B6813430B60204B66
:10358C001B6803F007033A689A4201D0012332E02A
:10359C007B681B6803F00403002B08D0194B5B6895
:1035AC0023F4E0627B68DB68164913434B607B684D
:1035BC001B6803F00803002B09D0124B5B6823F443
:1035CC0060527B681B69DB000E4913434B6000F0B3
:1035DC0021F802460B4B5B681B0903F00F030A49E9
:1035EC00CB5C22FA03F3094A1360094B1B6818469B
:1035FC00FEF7D8FC002318461037BD4680BD00BF2F
:10360C000020024000100240AC4100087C00002069
:10361C008000002080B487B000AF0023FB60002343
:10362C00BB6000237B6100237B6000233B611E4B4E
:10363C005B68FB60FB6803F00C03042B02D0082BC7
:10364C0003D027E0194B3B6127E0FB689B0C03F090
:10365C000F03174AD35C7B60FB6803F48033002BA9
:10366C0010D0114B5B685B0C03F00103114AD35C67
:10367C00BB607B680D4A02FB03F2BB68B2FBF3F341
:10368C007B6104E07B680C4A02FB03F37B617B6982
:10369C003B6102E0054B3B6100BF3B6918461C37A0
:1036AC00BD4680BC704700BF0010024000127A007B
:1036BC00C4410008D441000800093D0080B400AFAB
:1036CC00024B1B681846BD4680BC70477C0000202E
:1036DC0080B500AFFFF7F2FF0246054B5B681B0A93
:1036EC0003F007030349CB5C22FA03F3184680BDB1
:1036FC0000100240BC41000880B485B000AF786077
:10370C000A4B1B680A4AA2FB03235B0A7A6802FB7A
:10371C0003F3FB6000BFFB685A1EFA60002BF9D163
:10372C0000BF00BF1437BD4680BC70477C00002032
:10373C00D34D621080B582B000AF78607B68002BEF
:10374C0001D1012341E07B6893F83D30DBB2002BC3
:10375C0006D17B68002283F83C207868FEF754FB86
:10376C007B68022283F83D207B681A687B680433EF
:10377C001946104600F05CFA7B68012283F846205B
:10378C007B68012283F83E207B68012283F83F206E
:10379C007B68012283F840207B68012283F841205A
:1037AC007B68012283F842207B68012283F8432046
:1037BC007B68012283F844207B68012283F8452032
:1037CC007B68012283F83D20002318460837BD464C
:1037DC0080BD000080B485B000AF78607B6893F842
:1037EC003D30DBB2012B01D001233AE07B68022291
:1037FC0083F83D207B681B68DA687B681B6842F0A5
:10380C000102DA607B681B68184A93420ED07B6811
:10381C001B68B3F1804F09D07B681B68144A934234
:10382C0004D07B681B68134A934211D17B681B68D8
:10383C009B6803F00703FB60FB68062B10D07B68CA
:10384C001B681A687B681B6842F001021A6007E06B
:10385C007B681B681A687B681B6842F001021A605F
:10386C00002318461437BD4680BC7047002C01401D
:10387C00000400400008004080B584B000AF7860C0
:10388C007B681B68DB68FB607B681B681B69BB6023
:10389C00BB6803F00203002B20D0FB6803F002038B
:1038AC00002B1BD07B681B686FF002021A617B68CF
:1038BC0001221A777B681B689B6903F00303002BBA
:1038CC0003D0786800F098F905E0786800F08BF97F
:1038DC00786800F09AF97B6800221A77BB6803F0CD
:1038EC000403002B20D0FB6803F00403002B1BD037
:1038FC007B681B686FF004021A617B6802221A77DE
:10390C007B681B689B6903F44073002B03D07868B9
:10391C0000F072F905E0786800F065F9786800F05D
:10392C0074F97B6800221A77BB6803F00803002B3C
:10393C0020D0FB6803F00803002B1BD07B681B68AE
:10394C006FF008021A617B6804221A777B681B6887
:10395C00DB6903F00303002B03D0786800F04CF90B
:10396C0005E0786800F03FF9786800F04EF97B6864
:10397C0000221A77BB6803F01003002B20D0FB68E1
:10398C0003F01003002B1BD07B681B686FF0100238
:10399C001A617B6808221A777B681B68DB6903F461
:1039AC004073002B03D0786800F026F905E07868A6
:1039BC0000F019F9786800F028F97B6800221A7772
:1039CC00BB6803F00103002B0CD0FB6803F0010370
:1039DC00002B07D07B681B686FF001021A617868B6
:1039EC00FDF722FFBB6803F08003002B0CD0FB68B3
:1039FC0003F08003002B07D07B681B686FF08002FC
:103A0C001A61786800F07FFABB6803F04003002B62
:103A1C000CD0FB6803F04003002B07D07B681B68BD
:103A2C006FF040021A61786800F0F8F8BB6803F098
:103A3C002003002B0CD0FB6803F02003002B07D0D5
:103A4C007B681B686FF020021A61786800F052FAEC
:103A5C0000BF1037BD4680BD80B584B000AF786024
:103A6C0039600023FB737B6893F83C30012B01D148
:103A7C000223B4E07B68012283F83C207B6802229D
:103A8C0083F83D207B681B689B68BB60BB6823F098
:103A9C007703BB60BB6823F47F43BB607B681B6808
:103AAC00BA689A603B681B68B3F5005F3ED0B3F50B
:103ABC00005F00F28780B3F5805F00F08680B3F57D
:103ACC00805F7FD8702B1AD0702B7BD8602B50D096
:103ADC00602B77D8502B3CD0502B73D8402B58D020
:103AEC00402B6FD8302B64D0302B6BD8202B60D070
:103AFC00202B67D8002B5CD0102B5AD062E07B684F
:103B0C0018683B6899683B685A683B68DB6800F04A
:103B1C0074F97B681B689B68BB60BB6843F07703D8
:103B2C00BB607B681B68BA689A604FE07B6818685A
:103B3C003B6899683B685A683B68DB6800F05DF944
:103B4C007B681B689A687B681B6842F480429A60A9
:103B5C003CE07B6818683B6859683B68DB681A4630
:103B6C0000F0D4F87B681B685021184600F02BF944
:103B7C002CE07B6818683B6859683B68DB681A4620
:103B8C0000F0F2F87B681B686021184600F01BF906
:103B9C001CE07B6818683B6859683B68DB681A4610
:103BAC0000F0B4F87B681B684021184600F00BF954
:103BBC000CE07B681A683B681B681946104600F0DD
:103BCC0002F903E00123FB7300E000BF7B680122D4
:103BDC0083F83D207B68002283F83C20FB7B184651
:103BEC001037BD4680BD80B483B000AF786000BF95
:103BFC000C37BD4680BC704780B483B000AF786092
:103C0C0000BF0C37BD4680BC704780B483B000AF9A
:103C1C00786000BF0C37BD4680BC704780B483B061
:103C2C0000AF786000BF0C37BD4680BC7047000009
:103C3C0080B485B000AF786039607B681B68FB602E
:103C4C007B682F4A93420BD07B68B3F1804F07D02F
:103C5C007B682C4A934203D07B682B4A934208D151
:103C6C00FB6823F07003FB603B685B68FA681343E6
:103C7C00FB607B68224A93420BD07B68B3F1804F88
:103C8C0007D07B681F4A934203D07B681E4A93423D
:103C9C0008D1FB6823F44073FB603B68DB68FA686F
:103CAC001343FB60FB6823F080023B685B691343A2
:103CBC00FB607B68FA681A603B689A687B68DA621A
:103CCC003B681A687B689A627B680D4A934203D101
:103CDC003B681A697B681A637B6801225A617B68AE
:103CEC001B6903F00103002B05D07B681B6923F0D3
:103CFC0001027B681A6100BF1437BD4680BC704757
:103D0C00002C0140000400400008004080B487B043
:103D1C0000AFF860B9607A60FB681B6A7B61FB6876
:103D2C001B6A23F00102FB681A62FB689B693B610A
:103D3C003B6923F0F0033B617B681B013A69134339
:103D4C003B617B6923F00A037B617A69BB6813438F
:103D5C007B61FB683A699A61FB687A691A6200BFF9
:103D6C001C37BD4680BC704780B487B000AFF8608C
:103D7C00B9607A60FB681B6A7B61FB681B6A23F085
:103D8C001002FB681A62FB689B693B613B6923F478
:103D9C0070433B617B681B033A6913433B617B694E
:103DAC0023F0A0037B61BB681B017A6913437B6121
:103DBC00FB683A699A61FB687A691A6200BF1C3722
:103DCC00BD4680BC704780B485B000AF7860396068
:103DDC007B689B68FB60FB6823F07003FB603A68B0
:103DEC00FB68134343F00703FB607B68FA689A6037
:103DFC0000BF1437BD4680BC704780B487B000AF9D
:103E0C00F860B9607A603B60FB689B687B617B699A
:103E1C0023F47F437B613B681A027B681A43BB68BF
:103E2C0013437A6913437B61FB687A699A6000BF1C
:103E3C001C37BD4680BC704780B485B000AF78603D
:103E4C0039607B6893F83C30012B01D1022346E0AA
:103E5C007B68012283F83C207B68022283F83D209A
:103E6C007B681B685B68FB607B681B689B68BB603E
:103E7C00FB6823F07003FB603B681B68FA68134314
:103E8C00FB607B681B68FA685A607B681B68164A83
:103E9C0093420ED07B681B68B3F1804F09D07B68CE
:103EAC001B68124A934204D07B681B68104A9342E9
:103EBC000CD1BB6823F08003BB603B685B68BA68BD
:103ECC001343BB607B681B68BA689A607B680122ED
:103EDC0083F83D207B68002283F83C2000231846A1
:103EEC001437BD4680BC7047002C014000040040D4
:103EFC000008004080B483B000AF786000BF0C377E
:103F0C00BD4680BC704780B483B000AF786000BF02
:103F1C000C37BD4680BC7047014B1868704700BF1A
:103F2C008800002070B500260C4D0D4C641BA410AD
:103F3C00A64209D100F0F6F800260A4D0A4C641B83
:103F4C00A410A64205D170BD55F8043B9847013624
:103F5C00EEE755F8043B98470136F2E7D8410008E4
:103F6C00D8410008D8410008DC410008024B01464A
:103F7C00186800F05FB800BF88000020024B0146B3
:103F8C00186800F00BB800BF8800002003460244FC
:103F9C00934200D1704703F8011BF9E738B5054689
:103FAC00002943D051F8043C0C1F002BB8BFE41877
:103FBC0000F0AAF81E4A1368104633B96360146007
:103FCC002846BDE8384000F0A5B8A3420AD92168BC
:103FDC006218934201BF1A685B68521822606360D2
:103FEC000460EDE71A465B680BB1A342FAD911687D
:103FFC005018A0420BD12068014450188342116024
:10400C00DED118685B68014411605360D8E702D9AF
:10401C000C232B60D4E7206821188B4201BF196850
:10402C005B680918216063605460C9E738BD00BF44
:10403C007C010020F8B5CD1C25F0030508350C2DAE
:10404C0038BF0C25002D064601DBA94203D90C23F1
:10405C0033600020F8BD00F057F821490A68144677
:10406C009CB9204F3B6823B92146304600F03CF800
:10407C0038602946304600F037F8431C23D10C2316
:10408C003046336000F046F8E3E723685B1B17D437
:10409C000B2B03D923601C44256004E06368A24207
:1040AC000CBF0B605360304600F034F804F10B0089
:1040BC00231D20F00700C21ACCD01B1AA350C9E74D
:1040CC0022466468CCE7C41C24F00304A042E3D06D
:1040DC00211A304600F008F80130DDD1CFE700BFDF
:1040EC007C0100208001002038B50023054D0446DA
:1040FC0008462B60FDF7DEFE431C02D12B6803B192
:10410C00236038BD60020020014800F009B800BFF0
:10411C0068020020014800F004B800BF68020020CB
:10412C0070477047F8B500BFF8BC08BC9E46704796
:0C413C00F8B500BFF8BC08BC9E467047F8
:10414800C0F9A4B0999282F880900000205045529E
:10415800444553545249414E2000000020504552D6
:10416800444553545249414E204F4E200000000010
:104178006100000020504552444553545249414E75
:10418800204F5554200000002058696E2063686154
:104198006F2056584C000000205669207875206C16
:1041A8007900000000000000000000000102030484
:1041B80006070809000000000102030402030405C1
:1041C800060708090A0B0C0D0E0F1010010200005B
:0441D80031010008A9
:0441DC000D010008C9
:1041E00001000000000000000000000000000000CE
:1041F00001000000000000000000000000000000BE
:1042000001000000000000000000000000000000AD
:10421000010000000000000000000000000000009D
:104220000100000002000000030000000400000084
:104230000100000001000000030000000100000078
:104240000500000002000000030000000400000060
:1042500001000000960000000A00000000127A0031
:1042600010000000010000008C0000200000000091
:10427000000000000000000000000000000000003E
:10428000000000000000000000000000000000002E
:10429000000000000000000000000000000000001E
:1042A000000000000000000000000000000000000E
:1042B00000000000000000000000000000000000FE
:0C42C000000000000000000000000000F2
:0400000508001F3997
:00000001FF
