:020000040800F2
:1000000000280020011C0008251B00082B1B0008ED
:10001000311B0008371B00083D1B000800000000D2
:10002000000000000000000000000000431B00086A
:100030004F1B0008000000005B1B0008671B000846
:10004000491C0008491C0008491C0008491C0008FC
:10005000491C0008491C0008491C0008491C0008EC
:10006000491C0008491C0008491C0008491C0008DC
:10007000491C0008491C0008491C0008491C0008CC
:10008000491C0008491C0008491C0008491C0008BC
:10009000491C0008491C0008491C0008491C0008AC
:1000A000491C0008491C0008491C0008491C00089C
:1000B000751B0008491C000800000000491C0008CE
:1000C000491C00080000000000000000491C000856
:1000D00000000000491C0008491C00080000000046
:1000E000491C0008491C0008491C000800000000C9
:1000F0000000000000000000000000000000000000
:0C01000000000000000000005FF808F1A3
:1001100010B5054C237833B9044B13B10448AFF341
:1001200000800123237010BD80000020000000002B
:100130009C44000808B5034B1BB103490348AFF3C7
:10014000008008BD00000000840000209C440008DE
:1001500081F0004102E000BF83F0004330B54FEA78
:1001600041044FEA430594EA050F08BF90EA020FE5
:100170001FBF54EA000C55EA020C7FEA645C7FEA78
:10018000655C00F0E2804FEA5454D4EB5555B8BF9B
:100190006D420CDD2C4480EA020281EA030382EA0C
:1001A000000083EA010180EA020281EA0303362D9E
:1001B00088BF30BD11F0004F4FEA01314FF4801C71
:1001C0004CEA113102D0404261EB410113F0004F83
:1001D0004FEA03334CEA133302D0524263EB43033A
:1001E00094EA050F00F0A780A4F10104D5F1200ED8
:1001F0000DDB02FA0EFC22FA05F2801841F1000133
:1002000003FA0EF2801843FA05F359410EE0A5F106
:1002100020050EF1200E012A03FA0EFC28BF4CF037
:10022000020C43FA05F3C01851EBE37101F00045ED
:1002300007D54FF0000EDCF1000C7EEB00006EEBFA
:100240000101B1F5801F1BD3B1F5001F0CD3490884
:100250005FEA30004FEA3C0C04F101044FEA4452DB
:1002600012F5800F80F09A80BCF1004F08BF5FEA62
:10027000500C50F1000041EB045141EA050130BD42
:100280005FEA4C0C404141EB0101013C28BFB1F554
:10029000801FE9D291F0000F04BF01460020B1FA9F
:1002A00081F308BF2033A3F10B03B3F120020CDA72
:1002B0000C3208DD02F1140CC2F10C0201FA0CF050
:1002C00021FA02F10CE002F11402D8BFC2F1200CB5
:1002D00001FA02F120FA0CFCDCBF41EA0C0190406B
:1002E000E41AA2BF01EB0451294330BD6FEA0404B4
:1002F0001F3C1CDA0C340EDC04F11404C4F120029F
:1003000020FA04F001FA02F340EA030021FA04F3B0
:1003100045EA030130BDC4F10C04C4F1200220FA07
:1003200002F001FA04F340EA0300294630BD21FA45
:1003300004F0294630BD94F0000F83F4801306BF0B
:1003400081F480110134013D4EE77FEA645C18BFFF
:100350007FEA655C29D094EA050F08BF90EA020F96
:1003600005D054EA000C04BF1946104630BD91EA8E
:10037000030F1EBF0021002030BD5FEA545C05D191
:100380004000494128BF41F0004130BD14F58004D0
:100390003CBF01F5801130BD01F0004545F0FE4144
:1003A00041F470014FF0000030BD7FEA645C1ABF79
:1003B000194610467FEA655C1CBF0B46024650EAB0
:1003C000013406BF52EA033591EA030F41F40021DC
:1003D00030BD00BF90F0000F04BF0021704730B562
:1003E0004FF4806404F132044FF000054FF0000137
:1003F00050E700BF90F0000F04BF0021704730B5F8
:100400004FF4806404F1320410F0004548BF4042CC
:100410004FF000013EE700BF42004FEAE2014FEA21
:1004200031014FEA02701FBF12F07F4393F07F4FFC
:1004300081F06051704732F07F4208BF704793F0FF
:100440007F4F04BF41F40021704730B54FF4607412
:1004500001F0004521F000411CE700BF50EA010215
:1004600008BF704730B54FF000050AE050EA0102BE
:1004700008BF704730B511F0004502D5404261EB2E
:1004800041014FF4806404F132045FEA915C3FF46F
:10049000D8AE4FF003025FEADC0C18BF03325FEA0C
:1004A000DC0C18BF033202EBDC02C2F1200300FABD
:1004B00003FC20FA02F001FA03FE40EA0E0021FAE2
:1004C00002F11444BDE600BF70B54FF0FF0C4CF4D0
:1004D000E06C1CEA11541DBF1CEA135594EA0C0F82
:1004E00095EA0C0F00F0DEF82C4481EA030621EABD
:1004F0004C5123EA4C5350EA013518BF52EA0335F8
:1005000041F4801143F4801338D0A0FB02CE4FF0A9
:100510000005E1FB02E506F00042E0FB03E54FF0D9
:100520000006E1FB03569CF0000F18BF4EF0010ED1
:10053000A4F1FF04B6F5007F64F5407404D25FEACD
:100540004E0E6D4146EB060642EAC62141EA555180
:100550004FEAC52040EA5E504FEACE2EB4F1FD0CC2
:1005600088BFBCF5E06F1ED8BEF1004F08BF5FEA40
:10057000500E50F1000041EB045170BD06F00046F2
:1005800046EA010140EA020081EA0301B4EB5C049F
:10059000C2BFD4EB0C0541EA045170BD41F4801197
:1005A0004FF0000E013C00F3AB8014F1360FDEBFBC
:1005B000002001F0004170BDC4F10004203C35DA98
:1005C0000C341BDC04F11404C4F1200500FA05F31B
:1005D00020FA04F001FA05F240EA020001F00042BC
:1005E00021F0004110EBD37021FA04F642EB060132
:1005F0005EEA430E08BF20EAD37070BDC4F10C045C
:10060000C4F1200500FA04F320FA05F001FA04F21F
:1006100040EA020001F0004110EBD37041F100010B
:100620005EEA430E08BF20EAD37070BDC4F1200516
:1006300000FA05F24EEA020E20FA04F301FA05F27E
:1006400043EA020321FA04F001F0004121FA04F226
:1006500020EA020000EBD3705EEA430E08BF20EAF6
:10066000D37070BD94F0000F0FD101F00046400030
:1006700041EB010111F4801F08BF013CF7D041EAB2
:10068000060195F0000F18BF704703F000465200B6
:1006900043EB030313F4801F08BF013DF7D043EA87
:1006A0000603704794EA0C0F0CEA135518BF95EA3D
:1006B0000C0F0CD050EA410618BF52EA4306D1D1C4
:1006C00081EA030101F000414FF0000070BD50EAE3
:1006D000410606BF1046194652EA430619D094EA6D
:1006E0000C0F02D150EA013613D195EA0C0F05D157
:1006F00052EA03361CBF104619460AD181EA0301AB
:1007000001F0004141F0FE4141F470014FF0000062
:1007100070BD41F0FE4141F4780170BD70B54FF0FD
:10072000FF0C4CF4E06C1CEA11541DBF1CEA13557D
:1007300094EA0C0F95EA0C0F00F0A7F8A4EB05045F
:1007400081EA030E52EA03354FEA013100F0888056
:100750004FEA03334FF0805545EA131343EA12631F
:100760004FEA022245EA111545EA10654FEA0026D4
:100770000EF000419D4208BF964244F1FD0404F58D
:10078000407402D25B084FEA3202B61A65EB0305E9
:100790005B084FEA32024FF480104FF4002CB6EBA6
:1007A000020E75EB030E22BFB61A754640EA0C0026
:1007B0005B084FEA3202B6EB020E75EB030E22BF66
:1007C000B61A754640EA5C005B084FEA3202B6EBA7
:1007D000020E75EB030E22BFB61A754640EA9C0066
:1007E0005B084FEA3202B6EB020E75EB030E22BF36
:1007F000B61A754640EADC0055EA060E18D04FEAF4
:10080000051545EA16754FEA06164FEAC30343EA93
:1008100052734FEAC2025FEA1C1CC0D111F4801F60
:100820000BD141EA00014FF000004FF0004CB6E759
:1008300011F4801F04BF01430020B4F1FD0C88BFF8
:10084000BCF5E06F3FF6AFAEB5EB030C04BFB6EB03
:10085000020C5FEA500C50F1000041EB045170BDF6
:100860000EF0004E4EEA113114EB5C04C2BFD4EB23
:100870000C0541EA045170BD41F480114FF0000EA7
:10088000013C90E645EA060E8DE60CEA135594EA23
:100890000C0F08BF95EA0C0F3FF43BAF94EA0C0F26
:1008A0000AD150EA01347FF434AF95EA0C0F7FF49B
:1008B00025AF104619462CE795EA0C0F06D152EAEF
:1008C00003353FF4FDAE1046194622E750EA4106D3
:1008D00018BF52EA43067FF4C5AE50EA41047FF4E4
:1008E0000DAF52EA43057FF4EBAE12E74FEA410247
:1008F00012F5001215D211D56FF47873B3EB625272
:1009000012D94FEAC12343F0004343EA505311F098
:10091000004F23FA02F018BF404270474FF000002A
:10092000704750EA013005D111F0004008BF6FF068
:10093000004070474FF00000704700BF80B483B0A4
:1009400000AF7860094A7B6852F82330012B06D14A
:10095000064A7B68002142F82310012300E00023AF
:1009600018460C37BD4680BC704700BFDC00002035
:1009700080B483B000AF7860044A7B68012142F8FC
:10098000231000BF0C37BD4680BC7047DC00002040
:1009900080B582B000AF00237B60AEE05B4A7B682D
:1009A00052F823205A497B6841F82320594A7B6832
:1009B00052F8232055497B6841F823207B68002B9F
:1009C0000BD14FF40041544801F04EFC0346194648
:1009D000504A7B6842F8231027E07B68012B0AD13C
:1009E00040214D4801F040FC03461946494A7B68C6
:1009F00042F8231019E07B68022B0BD14FF4807171
:100A0000464801F031FC03461946424A7B6842F8E9
:100A100023100AE04FF40071404801F025FC034622
:100A200019463C4A7B6842F823103A4A7B6852F8E0
:100A3000232036497B6851F823309A4253D1334AF8
:100A40007B6852F8232032497B6851F823309A4260
:100A500049D1334A7B6852F823202D497B6851F8ED
:100A600023309A421BD02A4A7B6852F823202C4913
:100A70007B6841F823202A4A7B6852F82330002BF8
:100A800037D17868FFF774FF264A7B68642142F803
:100A90002310254A7B68002142F8231029E0204AD0
:100AA0007B6852F82330002B23D11E4A7B6852F812
:100AB0002330002B09DD1B4A7B6852F823305A1E75
:100AC00018497B6841F8232013E07868FFF750FF4E
:100AD000144A7B68142142F82310134A7B680121D1
:100AE00042F8231005E0104A7B68002142F82310E9
:100AF00000E000BF7B6801337B607B68032B7FF7DE
:100B00004DAF00BF00BF0837BD4680BDAC00002020
:100B1000BC0000209C000020000C014000080140A7
:100B2000CC000020EC000020FC00002080B584B048
:100B300000AF874B1B68013B332B00F2028101A2FF
:100B400052F823F0150C0008730C0008A10C0008E3
:100B5000CF0C0008430D0008430D0008430D0008AA
:100B6000430D0008430D0008430D0008150C000854
:100B7000150C0008150C0008150C0008430D0008A2
:100B8000430D0008430D0008430D0008430D000805
:100B9000430D0008730C0008730C0008430D000897
:100BA000430D0008430D0008430D0008430D0008E5
:100BB000430D0008430D0008430D0008A10C000878
:100BC000A10C0008430D0008430D0008430D000868
:100BD000430D0008430D0008430D0008430D0008B5
:100BE000430D0008CF0C0008CF0C0008430D00088F
:100BF000430D0008430D0008430D0008430D000895
:100C0000430D0008430D0008FD0C0008FD0C000812
:100C1000FD0C00080021002000F0C6FC4D4800F04B
:100C2000A7FC0021012000F0BFFC494B1B680B2BE7
:100C300003D1494800F09CFC86E0454B1B680C2B17
:100C400003D1464800F094FC7EE0414B1B680D2B1D
:100C500003D1434800F08CFC76E03D4B1B680E2B23
:100C600003D1404800F084FC6EE03F4800F080FC77
:100C70006AE00021002000F097FC3C4800F078FC7E
:100C80000021012000F090FC394B1A683B4639499D
:100C9000184603F07FF83B46184600F069FC53E025
:100CA0000021002000F080FC334800F061FC0021AE
:100CB000012000F079FC314B1A683B462D4918465B
:100CC00003F068F83B46184600F052FC3CE0002177
:100CD000002000F069FC2A4800F04AFC00210120B5
:100CE00000F062FC274B1A683B462249184603F085
:100CF00051F83B46184600F03BFC25E0002100205F
:100D000000F052FC204800F033FC0021012000F0EC
:100D10004BFC1E4B1B68012B03D11D4800F028FC27
:100D200011E01A4B1B68022B03D11A4800F020FC7B
:100D300009E0164B1B68032B05D1174800F018FC7F
:100D400001E000BF00E000BF00BF1037BD4680BD1E
:100D50000C010020B4440008C8440008DC4400082A
:100D6000F044000804450008184500082C45000818
:100D70000000002040450008544500080400002001
:100D800068450008080000207C450008100100208C
:100D900090450008A4450008B845000880B500AF9C
:100DA00001222021044801F076FA0122082102489C
:100DB00001F071FA00BF80BD000C014080B500AFAA
:100DC00000222021044801F066FA0122082102488D
:100DD00001F061FA00BF80BD000C014080B500AF9A
:100DE00001222021044801F056FA0022082102487D
:100DF00001F051FA00BF80BD000C014080B500AF8A
:100E000001224FF48061054801F045FA01221021CA
:100E1000024801F040FA00BF80BD00BF000C014055
:100E200080B500AF00224FF48061054801F033FA2D
:100E300001221021024801F02EFA00BF80BD00BF40
:100E4000000C014080B500AF01224FF480610548DD
:100E500001F021FA00221021024801F01CFA00BF23
:100E600080BD00BF000C014080B500AFFFF796FFCA
:100E7000FFF7D6FF00BF80BD80B582B000AF7860BD
:100E80007B68012B04D1FFF799FFFFF7B7FF0EE056
:100E90007B68022B04D1FFF781FFFFF7C1FF06E05B
:100EA0007B68032B03D1FFF799FFFFF7CBFF00BF50
:100EB0000837BD4680BD000080B500AFC44B1B683D
:100EC000322B00F2A38201A252F823F0990F0008FE
:100ED000A10F000827120008BF1200084D130008D8
:100EE0000D1400080D1400080D1400080D1400085E
:100EF0000D1400080D140008C10F0008511000085F
:100F0000B7100008471100080D1400080D14000860
:100F10000D1400080D1400080D1400080D1400082D
:100F2000371200087D1200080D1400080D14000887
:100F30000D1400080D1400080D1400080D1400080D
:100F40000D1400080D140008CF120008111300083A
:100F50000D1400080D1400080D1400080D140008ED
:100F60000D1400080D1400080D1400080D140008DD
:100F70005D130008C91300080D1400080D140008C3
:100F80000D1400080D1400080D1400080D140008BD
:100F90000D140008B11100088D4B01221A604CE2BB
:100FA0008B4B0B221A60FFF75FFF8A4B1B684FF4D5
:100FB0007A7202FB03F31946002000F0A7FC3CE222
:100FC0000120FFF7BBFC0346012B0ED1804B3222E0
:100FD0001A60814B01221A60002000F0B5FC7E4BA4
:100FE0001B681846FFF748FF27E20320FFF7A6FC1F
:100FF0000346012B0CD1764B0C221A60774B1B68F1
:101000004FF47A7202FB03F31946002000F07EFCD5
:10101000FFF7C4FEFFF704FF714B1B68012B0CD1D7
:101020006B4B0C221A606D4B1B684FF47A7202FBFB
:1010300003F31946002000F069FC0020FFF77EFC56
:101040000346012B40F0E481614B02221A60DFE18C
:101050000120FFF773FC0346012B0ED15C4B3222BB
:101060001A605D4B01221A60002000F06DFC5A4BA3
:101070001B681846FFF700FFDFE1FFF7E3FE584B60
:101080001B68012B0CD1524B0D221A60514B1B686F
:101090004FF47A7202FB03F31946002000F036FC8D
:1010A0000020FFF74BFC0346012B40F0B381484B77
:1010B00002221A60AEE10120FFF740FC0346012B3B
:1010C0000ED1434B32221A60434B01221A6000209A
:1010D00000F03AFC404B1B681846FFF7CDFEACE130
:1010E0000320FFF72BFC0346012B0CD1384B0E22BB
:1010F0001A603A4B1B684FF47A7202FB03F31946ED
:10110000002000F003FCFFF759FEFFF777FE344B99
:101110001B68012B0CD12E4B0E221A602F4B1B6823
:101120004FF47A7202FB03F31946002000F0EEFB45
:101130000020FFF703FC0346012B40F06D81244B98
:1011400002221A6068E10120FFF7F8FB0346012B39
:101150000ED11F4B32221A601F4B01221A60002051
:1011600000F0F2FB1C4B1B681846FFF785FE64E19C
:10117000FFF734FEFFF742FE194B1B68012B0CD121
:10118000134B0B221A60134B1B684FF47A7202FB4D
:1011900003F31946002000F0B9FB0020FFF7CEFB57
:1011A0000346012B40F03A81094B02221A6035E1D7
:1011B000094B1B68002B15D1074B01221A60002038
:1011C00000F0C2FB044B1B681846FFF755FE34E1E4
:1011D0000C01002008000020100100200400002065
:1011E0002C0100200120FFF7A9FB0346012B40F052
:1011F0001781934B1B680133914A1360904B1B6816
:10120000002B09DD8E4B1B68032B05DC8C4B1B6808
:101210001846FFF731FE03E1894B00221A60894B23
:1012200001221A60FCE0874B15221A60FFF7B6FD19
:10123000FFF7E4FD01E10020FFF780FB0346012BEF
:1012400002D1804B03221A600120FFF777FB03468F
:10125000012B40F0E7807B4B16221A607A4B1B680B
:10126000622B05DD794B1B680133774A1360D9E0A7
:10127000754B1B680133744A1360D3E00220FFF7FB
:101280005DFB0346012B03D16E4B15221A60D4E09F
:101290000120FFF753FB0346012B40F0C5806A4B4A
:1012A0001B68622B05DD694B1B680133664A1360BE
:1012B000BAE0654B1B680133634A1360B4E0614BCD
:1012C0001F221A60FFF78AFDFFF7BCFDB5E0002082
:1012D000FFF734FB0346012B02D15A4B04221A605C
:1012E0000120FFF72BFB0346012B40F09F80554B5D
:1012F00020221A60564B1B68032B03DD544B01223E
:101300001A6093E0524B1B680133514A13608DE021
:101310000220FFF713FB0346012B03D1494B1F2289
:101320001A608AE00120FFF709FB0346012B7FD1F9
:10133000474B1B68032B03DD454B01221A6077E006
:10134000434B1B680133424A136071E03D4B292235
:101350001A60FFF733FDFFF763FD6EE00020FFF733
:10136000EDFA0346012B14D1364B01221A60374B9C
:101370001A68374B1B689A4204DC354B1B680133F3
:10138000324A1360314B1A68314B1B6813442E4AA2
:1013900013600120FFF7D2FA0346012B4AD1294BF3
:1013A0002A221A60294B1B68622B07DD264B1A681C
:1013B000274B1B68D31A254A13603BE0234B1B685D
:1013C0000133224A136035E00220FFF7B7FA0346E3
:1013D000012B03D11B4B29221A602EE00120FFF7BD
:1013E000ADFA0346012B27D1184B1B68622B07DD92
:1013F000154B1A68164B1B68D31A144A13601BE06E
:10140000124B1B680133114A136015E000BF14E052
:1014100000BF12E000BF10E000BF0EE000BF0CE014
:1014200000BF0AE000BF08E000BF06E000BF04E024
:1014300000BF02E000BF00E000BF00BF80BD00BFF2
:10144000100100200C0100200000002008000020F6
:101450000400002080B586B002AF0346FB71FB7923
:1014600023F00F03FB73FB791B01BB73FB7B43F082
:101470000C03DBB23B72FB7B43F00803DBB27B72F5
:10148000BB7B43F00C03DBB2BB72BB7B43F00803B6
:10149000DBB2FB7207F108026423009304234221AC
:1014A000034801F055F800BF1037BD4680BD00BFAE
:1014B0005001002080B586B002AF0346FB71FB7976
:1014C00023F00F03FB73FB791B01BB73FB7B43F022
:1014D0000D03DBB23B72FB7B43F00903DBB27B7293
:1014E000BB7B43F00D03DBB2BB72BB7B43F0090354
:1014F000DBB2FB7207F1080264230093042342214C
:10150000034801F025F800BF1037BD4680BD00BF7D
:101510005001002080B500AF3320FFF79BFF322041
:10152000FFF798FF322000F0F3FB2820FFF792FF2F
:10153000322000F0EDFB0120FFF78CFF322000F09D
:10154000E7FB0620FFF786FF322000F0E1FB0C20CE
:10155000FFF780FF322000F0DBFB0220FFF77AFF6D
:10156000322000F0D5FB8020FFF774FF00BF80BD64
:1015700080B582B000AF786006E07B685A1C7A6064
:101580001B781846FFF796FF7B681B78002BF4D179
:1015900000BF00BF0837BD4680BD80B500AF012049
:1015A000FFF758FF00BF80BD80B584B000AF786002
:1015B00039607B68002B04D13B68DBB2803BFB7356
:1015C0000BE07B68012B04D13B68DBB2403BFB7333
:1015D00003E03B68DBB2803BFB73FB7B1846FFF705
:1015E00039FF00BF1037BD4680BD000080B500AF99
:1015F00000F02CFB00F026F800F01AF900F08CF84F
:1016000000F05CF80C4801F045FFFFF783FFFFF79F
:10161000C4FF00210020FFF7C7FF0848FFF7A8FF1D
:1016200000210120FFF7C0FF0548FFF7A1FFFFF7EA
:1016300043FCFFF77BFAFAE7A4010020CC45000841
:10164000DC45000880B590B000AF07F118032822F0
:101650000021184602F0E0FA3B1D00221A605A6091
:101660009A60DA601A610223BB610123BB62102316
:10167000FB6200237B6307F11803184601F0C0FAF0
:101680000346002B01D000F03BF90F237B600023C1
:10169000BB600023FB6000233B6100237B613B1D9B
:1016A0000021184601F02CFD0346002B01D000F06C
:1016B00027F900BF4037BD4680BD000080B500AFB0
:1016C000124B134A1A60114B124A5A600F4B0022F8
:1016D0009A600E4B0022DA600C4B4FF480421A6184
:1016E0000A4B00225A61094B00229A61074B0022E3
:1016F000DA61064B00221A62044800F0E5FD034659
:10170000002B01D000F0FCF800BF80BD500100208C
:1017100000540040A0860100B0B586B000AF07F1CC
:10172000080300221A605A609A60DA603B46002281
:101730001A605A603A4B4FF080421A60384B41F6BB
:101740003F725A60364B00229A60354B0922DA60AC
:10175000334B00221A61324B00229A61304801F06B
:1017600049FE0346002B01D000F0CAF84FF4805325
:10177000BB6007F108031946294801F0DFFF034663
:10178000002B01D000F0BCF800233B6000237B60FD
:101790003B461946224802F0ABF90346002B01D024
:1017A00000F0AEF81E4B5B6801331846FEF712FEE0
:1017B00002460B4618A1D1E90001FEF7AFFF024631
:1017C0000B4614461D46164BDB6801331846FEF7E0
:1017D00001FE02460B4620462946FEF79FFF0246C1
:1017E0000B464FF000000F49FEF798FF02460B46EC
:1017F000104619464FF000020B4BFEF765FE0246FD
:101800000B4610461946FFF771F80346074A136066
:1018100000BF1837BD46B0BD0000000080845E41A7
:10182000A40100200000F03F00408F400C00002089
:1018300080B586B000AF07F1080300221A605A6035
:101840009A60DA60254B9B69244A43F00803936150
:10185000224B9B6903F008037B607B681F4B9B69ED
:101860001E4A43F0040393611C4B9B6903F004037D
:101870003B603B6800224FF48761194800F00BFD84
:101880004FF48763BB600123FB6000233B610223AD
:101890007B6107F108031946114800F06BFB48F221
:1018A0004003BB600023FB6001233B6107F1080399
:1018B00019460B4800F05EFB4FF44073BB600023F9
:1018C000FB6001233B6107F108031946054800F05E
:1018D00051FB00BF1837BD4680BD00BF001002405D
:1018E000000C01400008014080B582B000AF786074
:1018F00000F042F8FFF74CF800BF0837BD4680BD46
:1019000080B400AF72B600BFFEE7000080B483B0C1
:1019100000AF78603960094B1B683A6892FBF3F2BC
:1019200007497B6841F82320064A7B68002142F87A
:10193000231000BF0C37BD4680BC70470C00002050
:10194000140100202C01002080B483B000AF786027
:10195000074A7B68002142F82310064A7B68002171
:1019600042F8231000BF0C37BD4680BC704700BF53
:10197000140100202C01002080B483B000AF0023AC
:101980007B601CE0124A7B6852F82330002B13DD89
:101990000F4A7B6852F823305A1E0D497B6841F884
:1019A00023200B4A7B6852F82330002B04DC094AC1
:1019B0007B68012142F823107B6801337B607B68E0
:1019C000052BDFDD00BF00BF0C37BD4680BC704774
:1019D000140100202C01002080B485B000AF154B0D
:1019E0009B69144A43F001039361124B9B6903F016
:1019F0000103BB60BB680F4BDB690E4A43F08053A9
:101A0000D3610C4BDB6903F080537B607B680A4B2E
:101A10005B68FB60FB6823F0E063FB60FB6843F0FE
:101A20000073FB60044AFB68536000BF1437BD4677
:101A300080BC7047001002400000014080B58AB0B1
:101A400000AF786007F1140300221A605A609A60B0
:101A5000DA607B681B681D4A934232D11C4B9B693C
:101A60001B4A43F008039361194B9B6903F0080379
:101A70003B613B694FF440737B611223BB610023E0
:101A8000FB6107F114031946124800F073FA124B78
:101A90005B687B627B6A43F0E0637B627B6A43F056
:101AA00002037B620C4A7B6A5360094BDB69084A7C
:101AB00043F40013D361064BDB6903F40013FB60AE
:101AC000FB6800BF2837BD4680BD00BF0054004002
:101AD00000100240000C01400000014080B584B0BD
:101AE00000AF78607B681B68B3F1804F13D10C4B5B
:101AF000DB690B4A43F00103D361094BDB6903F057
:101B00000103FB60FB68002200211C2000F0FBF9B0
:101B10001C2000F014FA00BF1037BD4680BD00BF86
:101B20000010024080B400AFFEE780B400AFFEE7D3
:101B300080B400AFFEE780B400AFFEE780B400AF32
:101B4000FEE780B400AF00BFBD4680BC704780B4E4
:101B500000AF00BFBD4680BC704780B400AF00BF7F
:101B6000BD4680BC704780B500AF00F0B5F800BF3F
:101B700080BD000080B500AF024801F0D7FC00BF77
:101B800080BD00BFA401002080B586B000AF7860A2
:101B9000144A154BD31A7B617B693B61134B1B685D
:101BA000002B02D1114B124A1A60104B1A687B6845
:101BB00013443A699A4207D202F004F803460C2211
:101BC0001A604FF0FF3309E0084B1B68FB60074BBE
:101BD0001A687B681344054A1360FB681846183777
:101BE000BD4680BD00280020000400004401002004
:101BF0000002002080B400AF00BFBD4680BC70472B
:101C0000FFF7F8FF0B480C490C4A002302E0D458B8
:101C1000C4500433C4188C42F9D3094A094C002338
:101C200001E013600432A242FBD301F0D1FFFFF7C1
:101C3000DDFC7047000000208000002050460008B6
:101C40008000002000020020FEE7000080B500AF09
:101C5000084B1B68074A43F010031360032000F091
:101C600047F90F2000F008F8FFF7B6FE00231846EA
:101C700080BD00BF0020024080B582B000AF786018
:101C8000124B1A68124B1B7819464FF47A73B3FB48
:101C9000F1F3B2FBF3F3184600F05FF90346002BB3
:101CA00001D001230EE07B680F2B0AD8002279684F
:101CB0004FF0FF3000F027F9064A7B6813600023DD
:101CC00000E0012318460837BD4680BD1000002003
:101CD000180000201400002080B400AF054B1B78D2
:101CE0001A46054B1B681344034A136000BFBD46E8
:101CF00080BC704718000020EC01002080B400AFC9
:101D0000024B1B681846BD4680BC7047EC010020A2
:101D100080B584B000AF7860FFF7F0FFB8607B68F3
:101D2000FB60FB68B3F1FF3F05D00A4B1B781A46F6
:101D3000FB681344FB6000BFFFF7E0FF0246BB688F
:101D4000D31AFA689A42F7D800BF00BF1037BD46D1
:101D500080BD00BF1800002080B485B000AF78605F
:101D60007B6803F00703FB600C4BDB68BB60BA6861
:101D70004FF6FF031340BB60FB681A02BB681343B6
:101D800043F0BF6343F40033BB60044ABB68D360D5
:101D900000BF1437BD4680BC704700BF00ED00E0B7
:101DA00080B400AF044BDB681B0A03F0070318463E
:101DB000BD4680BC704700BF00ED00E080B483B03A
:101DC00000AF0346FB7197F90730002B0BDBFB7963
:101DD00003F01F02064997F907305B09012000FA5A
:101DE00002F241F8232000BF0C37BD4680BC70478B
:101DF00000E100E080B483B000AF03463960FB71BE
:101E000097F90730002B0ADB3B68DAB20C4997F9E7
:101E100007301201D2B20B4483F800230AE03B687A
:101E2000DAB20849FB7903F00F03043B1201D2B286
:101E30000B441A7600BF0C37BD4680BC704700BF0C
:101E400000E100E000ED00E080B489B000AFF86090
:101E5000B9607A60FB6803F00703FB61FB69C3F1BB
:101E60000703042B28BF0423BB61FB690433062B43
:101E700002D9FB69033B00E000237B614FF0FF3296
:101E8000BB6902FA03F3DA43BB681A407B699A40E4
:101E90004FF0FF317B6901FA03F3D9437B680B40B4
:101EA000134318462437BD4680BC704780B582B0C6
:101EB00000AF78607B68013BB3F1807F01D30123E1
:101EC0000FE00A4A7B68013B53600F214FF0FF305F
:101ED000FFF790FF054B00229A60044B07221A601F
:101EE000002318460837BD4680BD00BF10E000E063
:101EF00080B582B000AF78607868FFF72DFF00BF33
:101F00000837BD4680BD80B586B000AF0346B960D6
:101F10007A60FB7300237B61FFF742FF78617A6888
:101F2000B9687869FFF790FF024697F90F301146BC
:101F30001846FFF75FFF00BF1837BD4680BD80B56C
:101F400082B000AF0346FB7197F907301846FFF7E0
:101F500035FF00BF0837BD4680BD80B582B000AFF9
:101F600078607868FFF7A2FF034618460837BD4639
:101F700080BD000080B48BB000AF78603960002372
:101F80007B6200233B6248E101227B6A02FA03F391
:101F9000FB613B681B68FA691340BB61BA69FB6966
:101FA0009A4240F037813B685B68A34A93425ED017
:101FB000A14A934275D8A14A934258D09F4A93426E
:101FC0006FD89F4A934252D09D4A934269D89D4A06
:101FD00093424CD09B4A934263D89B4A934246D04B
:101FE000994A93425DD8122B2AD8122B59D801A2B4
:101FF00052F823F06F200008492000085B200008F9
:102000009D200008A3200008A3200008A3200008AA
:10201000A3200008A3200008A3200008A320000894
:10202000A3200008A3200008A3200008A320000884
:10203000A3200008A3200008512000086520000804
:10204000824A934213D02CE03B68DB683B6229E074
:102050003B68DB6804333B6224E03B68DB680833A1
:102060003B621FE03B68DB680C333B621AE03B6875
:102070009B68002B02D104233B6213E03B689B6802
:10208000012B05D108233B627B68FA691A6109E0DC
:1020900008233B627B68FA695A6103E000233B62D4
:1020A00000E000BFBB69FF2B01D87B6801E07B68C3
:1020B00004337B61BB69FF2B02D87B6A9B0002E083
:1020C0007B6A083B9B003B617B691A680F213B6977
:1020D00001FA03F3DB431A40396A3B6901FA03F35F
:1020E0001A437B691A603B685B6803F08053002BDE
:1020F00000F09080564B9B69554A43F00103936171
:10210000534B9B6903F00103BB60BB68514A7B6A78
:102110009B08023352F82330FB607B6A03F0030311
:102120009B000F2202FA03F3DB43FA681340FB60C3
:102130007B68494A93420DD07B68484A934207D056
:102140007B68474A934201D1022304E0032302E063
:10215000012300E000237A6A02F003029200934018
:10216000FA681343FB603B497B6A9B080233FA68B9
:1021700041F823203B685B6803F48013002B06D0F2
:10218000384B9A683749BB6913438B6006E0354B7F
:102190009A68BB69DB43334913408B603B685B68DB
:1021A00003F40013002B06D02E4BDA682D49BB69CF
:1021B0001343CB6006E02B4BDA68BB69DB4329494C
:1021C0001340CB603B685B6803F40033002B06D000
:1021D000244B5A682349BB6913434B6006E0214BEB
:1021E0005A68BB69DB431F4913404B603B685B681F
:1021F00003F48033002B06D01A4B1A681949BB69C7
:1022000013430B6006E0174B1A68BB69DB431549A3
:1022100013400B607B6A01337B623B681A687B6A00
:1022200022FA03F3002B7FF4AFAE00BF00BF2C37C0
:10223000BD4680BC704700BF000032100000311066
:1022400000002210000021100000121000001110E8
:10225000001002400000014000080140000C014055
:10226000001001400004014080B485B000AF7860E8
:102270000B467B807B689A687B881340002B02D0DA
:102280000123FB7301E00023FB73FB7B184614372B
:10229000BD4680BC704780B483B000AF78600B4609
:1022A0007B8013467B707B78002B03D07A887B6819
:1022B0001A6103E07B881A047B681A6100BF0C373F
:1022C000BD4680BC7047000080B584B000AF786028
:1022D0007B68002B01D101232BE17B6893F83D3013
:1022E000DBB2002B06D17B68002283F83C207868A3
:1022F000FFF7A4FB7B68242283F83D207B681B68E2
:102300001A687B681B6822F001021A607B681B68F0
:102310001A687B681B6842F400421A607B681B687D
:102320001A687B681B6822F400421A6001F030F8DA
:10233000F8607B685B68814A934207D8FB68804AF3
:10234000934294BF01230023DBB206E0FB687D4A81
:10235000934294BF01230023DBB2002B01D0012361
:10236000E7E0FB68784AA2FB03239B0CBB607B6819
:102370001B685B6823F03F017B681B68BA680A43EF
:102380005A607B681B681B6A23F03F017B685B68AF
:102390006A4A934202D8BB68013309E0BB684FF434
:1023A000967202FB03F3694AA2FB03239B090133E4
:1023B0007A6812680B4313627B681B68DB6923F43D
:1023C0004F4222F0FF027B685B685C498B4219D860
:1023D000FB68591E7B685B685B00B1FBF3F3591C1B
:1023E00040F6FC730B40002B0AD0FB68591E7B683B
:1023F0005B685B00B1FBF3F30133C3F30B0351E004
:1024000004234FE07B689B68002B11D1FB68581EAA
:102410007B6859680B465B000B44B0FBF3F3013358
:10242000C3F30B03002B0CBF01230023DBB212E02C
:10243000FB68581E7B6859680B469B000B4499004B
:102440000B44B0FBF3F30133C3F30B03002B0CBFBE
:1024500001230023DBB2002B01D0012322E07B68A3
:102460009B68002B0ED1FB68581E7B6859680B4691
:102470005B000B44B0FBF3F30133C3F30B0343F4F2
:1024800000430FE0FB68581E7B6859680B469B00B1
:102490000B4499000B44B0FBF3F30133C3F30B037C
:1024A00043F44043796809681343CB617B681B6838
:1024B0001B6823F0C0017B68DA697B681B6A1A43DA
:1024C0007B681B680A431A607B681B689B6823F45F
:1024D000034323F0FF037A6811697A68D2681143D5
:1024E0007A6812680B4393607B681B68DB6823F093
:1024F000FF017B685A697B689B691A437B681B688C
:102500000A43DA607B681B681A687B681B6842F0C4
:1025100001021A607B6800221A647B68202283F81B
:102520003D207B6800221A637B68002283F83E20EE
:10253000002318461037BD4680BD00BFA0860100AD
:102540007F841E00FF083D0083DE1B43D34D6210D5
:1025500080B588B002AFF8607A601A460B467B817E
:1025600013463B81FFF7CAFB7861FB6893F83D3067
:10257000DBB2202B40F0E0807B690093192301221D
:102580007049F86800F064F90346002B01D002237B
:10259000D3E0FB6893F83C30012B01D10223CCE05F
:1025A000FB68012283F83C20FB681B681B6803F072
:1025B0000103012B07D0FB681B681A68FB681B68C6
:1025C00042F001021A60FB681B681A68FB681B680E
:1025D00022F400621A60FB68212283F83D20FB6828
:1025E000102283F83E20FB6800221A64FB687A6898
:1025F0005A62FB683A895A85FB685B8D9AB2FB6820
:102600001A85FB68504ADA6279897B693A6AF86808
:1026100000F09CF80346002B01D001238DE000233D
:102620003B61FB681B685B693B61FB681B689B69DE
:102630003B613B6966E07A69396AF86800F022FA22
:102640000346002B0DD0FB681B6C042B07D1FB68E5
:102650001B681A68FB681B6842F400721A60012349
:102660006BE0FB685B6A1A78FB681B681A61FB68A1
:102670005B6A5A1CFB685A62FB685B8D9BB2013B2C
:102680009AB2FB685A85FB681B8D013B9AB2FB68C6
:102690001A85FB681B685B6903F00403042B1BD1DC
:1026A000FB681B8D002B17D0FB685B6A1A78FB68F0
:1026B0001B681A61FB685B6A5A1CFB685A62FB68FC
:1026C0005B8D9BB2013B9AB2FB685A85FB681B8D00
:1026D000013B9AB2FB681A857A69396AF86800F09A
:1026E00019FA0346002B0DD0FB681B6C042B07D195
:1026F000FB681B681A68FB681B6842F400721A606A
:1027000001231AE0FB681B8D002B94D1FB681B682A
:102710001A68FB681B6842F400721A60FB6820228A
:1027200083F83D20FB68002283F83E20FB680022EE
:1027300083F83C20002300E0022318461837BD46EA
:1027400080BD00BF020010000000FFFF80B588B010
:1027500002AFF8607A603B600B467B81FB68DB6A06
:102760007B617B69082B06D07B69012B03D07B69D9
:1027700013F5803F08D1FB681B681A68FB681B686B
:1027800042F480721A600BE0FB681B6B122B07D1BE
:10279000FB681B681A68FB681B6842F480721A6049
:1027A0003B6800937B6800224FF00111F86800F04D
:1027B0004FF80346002B0DD0FB681B681B6803F421
:1027C0008073B3F5807F03D1FB684FF400721A6405
:1027D000032335E0FB681B69B3F5804F08D17B8983
:1027E000DBB21A46FB681B6802F0FE021A611BE0AE
:1027F0007B89DB11DBB203F00603DBB263F00F036E
:10280000DAB2FB681B681A613B687A680E49F8689F
:1028100000F098F80346002B01D0012310E07B89DB
:10282000DAB2FB681B681A613B687A680749F86886
:1028300000F088F80346002B01D0012300E00023BC
:1028400018461837BD4680BD08000100020001008F
:1028500080B584B000AFF860B9603B601346FB718F
:1028600048E03B68B3F1FF3F44D0FFF747FA024628
:10287000BB69D31A3A689A4202D33B68002B39D11C
:10288000BB681B0CDBB2012B0DD1FB681B685B69BD
:10289000DA43BB6813409BB2002B0CBF012300231B
:1028A000DBB21A460CE0FB681B689B69DA43BB6825
:1028B00013409BB2002B0CBF01230023DBB21A464E
:1028C000FB799A4216D1FB6800221A63FB6820222A
:1028D00083F83D20FB68002283F83E20FB681B6CD8
:1028E00043F02002FB681A64FB68002283F83C2056
:1028F000012323E0BB681B0CDBB2012B0DD1FB686D
:102900001B685B69DA43BB6813409BB2002B0CBFAA
:1029100001230023DBB21A460CE0FB681B689B69AD
:10292000DA43BB6813409BB2002B0CBF012300238A
:10293000DBB21A46FB799A4293D00023184610372F
:10294000BD4680BD80B584B000AFF860B9607A60E4
:102950003B6071E0FB681B685B6903F48063B3F55F
:10296000806F23D1FB681B681A68FB681B6842F400
:1029700000721A60FB681B686FF480625A61FB6822
:1029800000221A63FB68202283F83D20FB680022A6
:1029900083F83E20FB681B6C43F00402FB681A645A
:1029A000FB68002283F83C20012367E07B68B3F1D9
:1029B000FF3F41D0FFF7A2F902463B68D31A7A687D
:1029C0009A4202D37B68002B36D1BB681B0CDBB26A
:1029D000012B0CD1FB681B685B69DA43BB681340B1
:1029E0009BB2002B14BF01230023DBB20BE0FB687A
:1029F0001B689B69DA43BB6813409BB2002B14BF72
:102A000001230023DBB2002B16D0FB6800221A63DF
:102A1000FB68202283F83D20FB68002283F83E20DB
:102A2000FB681B6C43F02002FB681A64FB68002201
:102A300083F83C20012321E0BB681B0CDBB2012B97
:102A40000CD1FB681B685B69DA43BB6813409BB21F
:102A5000002B14BF01230023DBB20BE0FB681B68D3
:102A60009B69DA43BB6813409BB2002B14BF012360
:102A70000023DBB2002B7FF46DAF00231846103724
:102A8000BD4680BD80B584B000AFF860B9607A60A3
:102A900034E0F86800F086F80346002B01D00123EB
:102AA00034E0BB68B3F1FF3F28D0FFF727F90246B7
:102AB0007B68D31ABA689A4202D3BB68002B1DD137
:102AC000FB681B685B6903F08003802B16D0FB68F2
:102AD00000221A63FB68202283F83D20FB68002255
:102AE00083F83E20FB681B6C43F02002FB681A64ED
:102AF000FB68002283F83C20012307E0FB681B6889
:102B00005B6903F08003802BC3D100231846103784
:102B1000BD4680BD80B584B000AFF860B9607A6012
:102B200034E0F86800F03EF80346002B01D00123A2
:102B300034E0BB68B3F1FF3F28D0FFF7DFF802466F
:102B40007B68D31ABA689A4202D3BB68002B1DD1A6
:102B5000FB681B685B6903F00403042B16D0FB6859
:102B600000221A63FB68202283F83D20FB680022C4
:102B700083F83E20FB681B6C43F02002FB681A645C
:102B8000FB68002283F83C20012307E0FB681B68F8
:102B90005B6903F00403042BC3D1002318461037EC
:102BA000BD4680BD80B483B000AF78607B681B6891
:102BB0005B6903F48063B3F5806F1BD17B681B688E
:102BC0006FF480625A617B6800221A637B6820225E
:102BD00083F83D207B68002283F83E207B681B6CD5
:102BE00043F004027B681A647B68002283F83C206F
:102BF000012300E0002318460C37BD4680BC704717
:102C000080B586B000AF78607B68002B01D10123CE
:102C10006CE27B681B6803F00103002B00F08780E7
:102C2000924B5B6803F00C03042B0CD08F4B5B685A
:102C300003F00C03082B12D18C4B5B6803F4803338
:102C4000B3F5803F0BD1894B1B6803F40033002B95
:102C50006CD07B685B68002B68D1012346E27B68FF
:102C60005B68B3F5803F06D1804B1B687F4A43F415
:102C7000803313602EE07B685B68002B0CD17B4BAC
:102C80001B687A4A23F480331360784B1B68774AB9
:102C900023F4802313601DE07B685B68B3F5A02FED
:102CA0000CD1724B1B68714A43F4802313606F4B45
:102CB0001B686E4A43F4803313600BE06B4B1B6858
:102CC0006A4A23F480331360684B1B68674A23F415
:102CD000802313607B685B68002B13D0FFF70EF82E
:102CE000386108E0FFF70AF802463B69D31A642B03
:102CF00001D90323FAE15D4B1B6803F40033002B79
:102D0000F0D014E0FEF7FAFF386108E0FEF7F6FFB6
:102D100002463B69D31A642B01D90323E6E1534BE6
:102D20001B6803F40033002BF0D100E000BF7B6888
:102D30001B6803F00203002B63D04C4B5B6803F06D
:102D40000C03002B0BD0494B5B6803F00C03082BE2
:102D50001CD1464B5B6803F48033002B16D1434BE8
:102D60001B6803F00203002B05D07B681B69012B55
:102D700001D00123BAE13D4B1B6823F0F8027B68C8
:102D80005B69DB00394913430B603AE07B681B69E0
:102D9000002B20D0364B01221A60FEF7AFFF3861BE
:102DA00008E0FEF7ABFF02463B69D31A022B01D9BC
:102DB00003239BE12D4B1B6803F00203002BF0D093
:102DC0002A4B1B6823F0F8027B685B69DB0027490C
:102DD00013430B6015E0264B00221A60FEF78EFFAE
:102DE000386108E0FEF78AFF02463B69D31A022BDE
:102DF00001D903237AE11D4B1B6803F00203002B6A
:102E0000F0D17B681B6803F00803002B3AD07B6885
:102E10009B69002B19D0174B01221A60FEF76EFF39
:102E2000386108E0FEF76AFF02463B69D31A022BBD
:102E300001D903235AE10D4B5B6A03F00203002B17
:102E4000F0D0012000F0B8FA1CE00A4B00221A6012
:102E5000FEF754FF38610FE0FEF750FF02463B6972
:102E6000D31A022B08D9032340E100BF001002400F
:102E700000004242800442429E4B5B6A03F0020320
:102E8000002BE9D17B681B6803F00403002B00F0E2
:102E9000A6800023FB75974BDB6903F08053002B62
:102EA0000DD1944BDB69934A43F08053D361914B2E
:102EB000DB6903F08053BB60BB680123FB758E4B5D
:102EC0001B6803F48073002B18D18B4B1B688A4A54
:102ED00043F480731360FEF711FF386108E0FEF7DA
:102EE0000DFF02463B69D31A642B01D90323FDE091
:102EF000814B1B6803F48073002BF0D07B68DB6888
:102F0000012B06D17B4B1B6A7A4A43F00103136203
:102F10002DE07B68DB68002B0CD1764B1B6A754A71
:102F200023F001031362734B1B6A724A23F00403FC
:102F300013621CE07B68DB68052B0CD16D4B1B6AB0
:102F40006C4A43F0040313626A4B1B6A694A43F0FC
:102F5000010313620BE0674B1B6A664A23F001030F
:102F60001362644B1B6A634A23F0040313627B6899
:102F7000DB68002B15D0FEF7C1FE38610AE0FEF7D2
:102F8000BDFE02463B69D31A41F28832934201D911
:102F90000323ABE0574B1B6A03F00203002BEED078
:102FA00014E0FEF7ABFE38610AE0FEF7A7FE02462A
:102FB0003B69D31A41F28832934201D9032395E049
:102FC0004C4B1B6A03F00203002BEED1FB7D012B5F
:102FD00005D1484BDB69474A23F08053D3617B68B6
:102FE000DB69002B00F08180424B5B6803F00C032F
:102FF000082B61D07B68DB69022B46D13F4B002256
:103000001A60FEF77BFE386108E0FEF777FE0246A5
:103010003B69D31A022B01D9032367E0354B1B68A8
:1030200003F00073002BF0D17B681B6AB3F5803F7F
:1030300008D1304B5B6823F400327B689B682D49D4
:1030400013434B602B4B5B6823F474127B68196A43
:103050007B685B6A0B43274913434B60274B012274
:103060001A60FEF74BFE386108E0FEF747FE0246A5
:103070003B69D31A022B01D9032337E01D4B1B6890
:1030800003F00073002BF0D02FE01C4B00221A60DD
:10309000FEF734FE386108E0FEF730FE02463B6979
:1030A000D31A022B01D9032320E0124B1B6803F033
:1030B0000073002BF0D118E07B68DB69012B01D194
:1030C000012313E00B4B5B68FB60FB6803F4803269
:1030D0007B681B6A9A4206D1FB6803F470127B6816
:1030E0005B6A9A4201D0012300E00023184618379A
:1030F000BD4680BD001002400070004060004242AA
:1031000080B584B000AF786039607B68002B01D156
:103110000123D0E06A4B1B6803F007033A689A4228
:1031200010D9674B1B6823F0070265493B681343BE
:103130000B60634B1B6803F007033A689A4201D0A7
:103140000123B8E07B681B6803F00203002B20D04A
:103150007B681B6803F00403002B05D0594B5B68A8
:10316000584A43F4E06353607B681B6803F008032C
:10317000002B05D0534B5B68524A43F460535360B5
:10318000504B5B6823F0F0027B689B684D4913430A
:103190004B607B681B6803F00103002B40D07B6809
:1031A0005B68012B07D1474B1B6803F40033002BEE
:1031B00015D101237FE07B685B68022B07D1414B6F
:1031C0001B6803F00073002B09D1012373E03D4B12
:1031D0001B6803F00203002B01D101236BE0394B84
:1031E0005B6823F003027B685B68364913434B60DE
:1031F000FEF784FDF8600AE0FEF780FD0246FB68FA
:10320000D31A41F28832934201D9032353E02D4B64
:103210005B6803F00C027B685B689B009A42EBD111
:10322000274B1B6803F007033A689A4210D2244BDD
:103230001B6823F0070222493B6813430B60204BB5
:103240001B6803F007033A689A4201D0012332E079
:103250007B681B6803F00403002B08D0194B5B68E4
:1032600023F4E0627B68DB68164913434B607B689C
:103270001B6803F00803002B09D0124B5B6823F492
:1032800060527B681B69DB000E4913434B6000F002
:1032900021F802460B4B5B681B0903F00F030A4938
:1032A000CB5C22FA03F3094A1360094B1B681846EA
:1032B000FEF7E2FC002318461037BD4680BD00BF74
:1032C0000020024000100240E845000810000020E5
:1032D0001400002080B487B000AF0023FB600023FF
:1032E000BB6000237B6100237B6000233B611E4B9E
:1032F0005B68FB60FB6803F00C03042B02D0082B17
:1033000003D027E0194B3B6127E0FB689B0C03F0DF
:103310000F03174AD35C7B60FB6803F48033002BF8
:1033200010D0114B5B685B0C03F00103114AD35CB6
:10333000BB607B680D4A02FB03F2BB68B2FBF3F390
:103340007B6104E07B680C4A02FB03F37B617B69D1
:103350003B6102E0054B3B6100BF3B6918461C37EF
:10336000BD4680BC704700BF0010024000127A00CA
:10337000004600081046000800093D0080B400AF78
:10338000024B1B681846BD4680BC704710000020E9
:1033900080B500AFFFF7F2FF0246054B5B681B0AE2
:1033A00003F007030349CB5C22FA03F3184680BD00
:1033B00000100240F845000880B485B000AF786086
:1033C0000A4B1B680A4AA2FB03235B0A7A6802FBCA
:1033D00003F3FB6000BFFB685A1EFA60002BF9D1B3
:1033E00000BF00BF1437BD4680BC704710000020EE
:1033F000D34D621080B582B000AF78607B68002B3F
:1034000001D1012341E07B6893F83D30DBB2002B12
:1034100006D17B68002283F83C207868FEF75EFBCB
:103420007B68022283F83D207B681A687B6804333E
:103430001946104600F06EFA7B68012283F8462098
:103440007B68012283F83E207B68012283F83F20BD
:103450007B68012283F840207B68012283F84120A9
:103460007B68012283F842207B68012283F8432095
:103470007B68012283F844207B68012283F8452081
:103480007B68012283F83D20002318460837BD469B
:1034900080BD000080B485B000AF78607B6893F891
:1034A0003D30DBB2012B01D0012335E07B680222E5
:1034B00083F83D207B681B68DA687B681B6842F0F4
:1034C0000102DA607B681B68164A934209D07B6868
:1034D0001B68B3F1804F04D07B681B68124A93428B
:1034E00011D17B681B689B6803F00703FB60FB68D6
:1034F000062B10D07B681B681A687B681B6842F03B
:1035000001021A6007E07B681B681A687B681B6809
:1035100042F001021A60002318461437BD4680BCF1
:10352000704700BF002C01400004004080B582B00D
:1035300000AF78607B681B681B6903F00203022BF5
:1035400022D17B681B68DB6803F00203022B1BD1CE
:103550007B681B686FF002021A617B6801221A7790
:103560007B681B689B6903F00303002B03D078681A
:1035700000F0B4F905E0786800F0A7F9786800F089
:10358000B6F97B6800221A777B681B681B6903F019
:103590000403042B22D17B681B68DB6803F004035F
:1035A000042B1BD17B681B686FF004021A617B68D7
:1035B00002221A777B681B689B6903F44073002B17
:1035C00003D0786800F08AF905E0786800F07DF9AA
:1035D000786800F08CF97B6800221A777B681B689A
:1035E0001B6903F00803082B22D17B681B68DB688A
:1035F00003F00803082B1BD17B681B686FF00802DF
:103600001A617B6804221A777B681B68DB6903F008
:103610000303002B03D0786800F060F905E07868B8
:1036200000F053F9786800F062F97B6800221A779D
:103630007B681B681B6903F01003102B22D17B6889
:103640001B68DB6803F01003102B1BD17B681B6821
:103650006FF010021A617B6808221A777B681B687A
:10366000DB6903F44073002B03D0786800F036F96F
:1036700005E0786800F029F9786800F038F97B688F
:1036800000221A777B681B681B6903F00103012B7A
:103690000ED17B681B68DB6803F00103012B07D1A7
:1036A0007B681B686FF001021A617868FEF71CF9ED
:1036B0007B681B681B6903F08003802B0ED17B683D
:1036C0001B68DB6803F08003802B07D17B681B68D5
:1036D0006FF080021A61786800F06BFA7B681B68F3
:1036E0001B6903F04003402B0ED17B681B68DB682D
:1036F00003F04003402B07D17B681B686FF040024A
:103700001A61786800F0FCF87B681B681B6903F09D
:103710002003202B0ED17B681B68DB6803F020039D
:10372000202B07D17B681B686FF020021A61786834
:1037300000F036FA00BF0837BD4680BD80B584B0C2
:1037400000AF786039600023FB737B6893F83C30EE
:10375000012B01D10223B4E07B68012283F83C20D5
:103760007B68022283F83D207B681B689B68BB60F6
:10377000BB6823F07703BB60BB6823F47F43BB6067
:103780007B681B68BA689A603B681B68B3F5005F8A
:103790003ED0B3F5005F00F28780B3F5805F00F0A4
:1037A0008680B3F5805F7FD8702B1AD0702B7BD8C2
:1037B000602B50D0602B77D8502B3CD0502B73D837
:1037C000402B58D0402B6FD8302B64D0302B6BD887
:1037D000202B60D0202B67D8002B5CD0102B5AD028
:1037E00062E07B6818683B6899683B685A683B6888
:1037F000DB6800F05EF97B681B689B68BB60BB6898
:1038000043F07703BB607B681B68BA689A604FE03F
:103810007B6818683B6899683B685A683B68DB6856
:1038200000F047F97B681B689A687B681B6842F464
:1038300080429A603CE07B6818683B6859683B6846
:10384000DB681A4600F0BEF87B681B6850211846FA
:1038500000F015F92CE07B6818683B6859683B68F4
:10386000DB681A4600F0DCF87B681B6860211846AC
:1038700000F005F91CE07B6818683B6859683B68F4
:10388000DB681A4600F09EF87B681B6840211846EA
:1038900000F0F5F80CE07B681A683B681B68194675
:1038A000104600F0ECF803E00123FB7300E000BFDA
:1038B0007B68012283F83D207B68002283F83C204E
:1038C000FB7B18461037BD4680BD80B483B000AF87
:1038D000786000BF0C37BD4680BC704780B483B0B1
:1038E00000AF786000BF0C37BD4680BC704780B425
:1038F00083B000AF786000BF0C37BD4680BC704716
:1039000080B483B000AF786000BF0C37BD4680BC88
:103910007047000080B485B000AF786039607B6884
:103920001B68FB607B68254A934207D07B68B3F134
:10393000804F03D07B68224A934208D1FB6823F072
:103940007003FB603B685B68FA681343FB607B684D
:103950001A4A934207D07B68B3F1804F03D07B684B
:10396000174A934208D1FB6823F44073FB603B681D
:10397000DB68FA681343FB60FB6823F080023B6856
:103980005B691343FB607B68FA681A603B689A685E
:103990007B68DA623B681A687B689A627B68074AD0
:1039A000934203D13B681A697B681A637B680122E2
:1039B0005A6100BF1437BD4680BC7047002C0140DF
:1039C0000004004080B487B000AFF860B9607A604E
:1039D000FB681B6A7B61FB681B6A23F00102FB68C2
:1039E0001A62FB689B693B613B6923F0F0033B6112
:1039F0007B681B013A6913433B617B6923F00A032F
:103A00007B617A69BB6813437B61FB683A699A61A1
:103A1000FB687A691A6200BF1C37BD4680BC7047DC
:103A200080B487B000AFF860B9607A60FB681B6A49
:103A30007B61FB681B6A23F01002FB681A62FB685B
:103A40009B693B613B6923F470433B617B681B03CB
:103A50003A6913433B617B6923F0A0037B61BB6838
:103A60001B017A6913437B61FB683A699A61FB68C1
:103A70007A691A6200BF1C37BD4680BC704780B4AB
:103A800085B000AF786039607B689B68FB60FB683D
:103A900023F07003FB603A68FB68134343F00703AD
:103AA000FB607B68FA689A6000BF1437BD4680BC33
:103AB000704780B487B000AFF860B9607A603B604F
:103AC000FB689B687B617B6923F47F437B613B6878
:103AD0001A027B681A43BB6813437A6913437B61FC
:103AE000FB687A699A6000BF1C37BD4680BC70478E
:103AF00080B485B000AF786039607B6893F83C3063
:103B0000012B01D1022341E07B68012283F83C2094
:103B10007B68022283F83D207B681B685B68FB6042
:103B20007B681B689B68BB60FB6823F07003FB60CD
:103B30003B681B68FA681343FB607B681B68FA6884
:103B40005A607B681B68144A934209D07B681B68E3
:103B5000B3F1804F04D07B681B68104A93420CD1AC
:103B6000BB6823F08003BB603B685B68BA681343A3
:103B7000BB607B681B68BA689A607B68012283F827
:103B80003D207B68002283F83C2000231846143730
:103B9000BD4680BC704700BF002C014000040040BF
:103BA00080B483B000AF786000BF0C37BD4680BCE6
:103BB000704780B483B000AF786000BF0C37BD465B
:103BC00080BC7047014B1868704700BF1C00002084
:103BD00070B500260C4D0D4C641BA410A64209D1F3
:103BE00000F05CFC00260A4D0A4C641BA410A6429F
:103BF00005D170BD55F8043B98470136EEE755F8FE
:103C0000043B98470136F2E748460008484600085A
:103C1000484600084C46000803460244934200D13F
:103C2000704703F8011BF9E738B50546002943D072
:103C300051F8043C0C1F002BB8BFE41800F0CAF880
:103C40001E4A1368104633B9636014602846BDE805
:103C5000384000F0C5B8A3420AD9216862189342DF
:103C600001BF1A685B685218226063600460EDE768
:103C70001A465B680BB1A342FAD911685018A042EA
:103C80000BD120680144501883421160DED11868BE
:103C90005B68014411605360D8E702D90C232B60A4
:103CA000D4E7206821188B4201BF19685B680918A6
:103CB000216063605460C9E738BD00BF480100203F
:103CC000F8B5CD1C25F0030508350C2D38BF0C25A3
:103CD000002D064601DBA94203D90C2333600020E6
:103CE000F8BD00F077F821490A6814469CB9204FC6
:103CF0003B6823B92146304600F03CF8386029463D
:103D0000304600F037F8431C23D10C233046336093
:103D100000F066F8E3E723685B1B17D40B2B03D98D
:103D200023601C44256004E06368A2420CBF0B6062
:103D30005360304600F054F804F10B00231D20F0CE
:103D40000700C21ACCD01B1AA350C9E722466468E8
:103D5000CCE7C41C24F00304A042E3D0211A30466F
:103D600000F008F80130DDD1CFE700BF48010020A6
:103D70004C01002038B50023054D044608462B6051
:103D8000FDF702FF431C02D12B6803B1236038BD4D
:103D9000F00100200EB46FF0004100B59CB01DABE7
:103DA00002900690079104910848094953F8042BA2
:103DB0000591006802A9019300F074F80022029BAB
:103DC0001A701CB05DF804EB03B070471C000020B3
:103DD0000802FFFF014800F0FBBA00BFF801002015
:103DE000014800F0F6BA00BFF80100202DE9F047C5
:103DF0008E6882469E420C4690461F4638D88A8975
:103E000012F4906F32D0256809690133A5EB0109DE
:103E100065694B4405EB450505EBD5756D109D4275
:103E200038BF1D46530531D52946FFF749FF0646E1
:103E300050B90C234FF0FF30CAF80030A38943F08B
:103E40004003A381BDE8F0874A46216900F0D0FA1B
:103E5000A38923F4906343F08003A38126614E4439
:103E600026603E466561A5EB0905A560BE4200D906
:103E70003E4632464146206800F0C8FAA3682268F0
:103E80009B1B32440020A3602260DBE72A4600F03F
:103E9000D7FA06460028E1D150462169FFF7C4FE53
:103EA000C7E700002DE9F04F98468B8907461B06AF
:103EB0000D4614469DB00ED50B6963B94021FFF73E
:103EC000FFFE2860286120B90C233B604FF0FF30D3
:103ED000D1E040236B610023099320238DF8293022
:103EE00030234FF00109CDF80C80DFF8A4818DF864
:103EF0002A3023469A4613F8012B0AB1252AF9D114
:103F0000BAEB040B0BD05B46224629463846FFF736
:103F10006DFF013000F0AA80099A5A4409929AF87C
:103F20000030002B00F0A28000234FF0FF32CDE9DB
:103F300005230AF1010A049307938DF853301A936D
:103F40005446052214F8011B514800F043FA049A24
:103F5000D8B9D00644BF20238DF85330110744BF91
:103F60002B238DF853309AF800302A2B15D0544665
:103F700000204FF00A0C079A214611F8013B303B14
:103F8000092B4ED9B0B1079214E0A0EB080309FA4F
:103F900003F31343A2460493D2E7039B191D1B6846
:103FA0000391002BBBBF5B4242F0020207930793D1
:103FB000B8BF049223782E2B0CD163782A2B35D1ED
:103FC000039B02341A1D1B680392002BB8BF4FF0ED
:103FD000FF330593DFF8C8A003225046217800F094
:103FE000F9F940B14023A0EB0A0003FA00F0049B6A
:103FF00001340343049314F8011B062225488DF86D
:10400000281000F0E7F9002838D0234B1BBB039B96
:10401000073323F0070308330393099B33440993C1
:1040200067E70C4601200CFB0232A5E700234FF0A6
:104030000A0C194601340593204610F8012B303A3A
:10404000092A03D9002BC5D00591C3E704460123F3
:104050000CFB0121F0E703AB00932A4638460F4BD7
:1040600004A9AFF30080421C0646D6D1AB895B069B
:104070003FF52CAF09981DB0BDE8F08F03AB00935E
:104080002A463846054B04A900F07CF8EBE700BF50
:10409000124600081C46000800000000ED3D000824
:1040A000184600082DE9F047164699468A680B69BC
:1040B00007469342B8BF1346336091F843200C463D
:1040C000DDF820800AB1013333602368990642BFCE
:1040D000336802333360256815F0060506D104F114
:1040E000190AE36832689B1AAB4228DC94F8432033
:1040F000131E226818BF012392062DD44946384664
:1041000004F14302C047013020D02368E56803F082
:104110000603042B18BF002532684FF00006A36881
:1041200008BFAD1A226908BF25EAE5759342C4BFEE
:104130009B1AED181A34B5421AD1002008E0012369
:10414000524649463846C047013003D14FF0FF3050
:10415000BDE8F0870135C4E73020E11881F843005D
:104160005A1C94F845102244023382F84310C5E7E4
:104170000123224649463846C0470130E6D0013681
:10418000D9E700002DE9FF470C46277E9146782F9E
:1041900080469A460C9904F1430207D8622F0AD848
:1041A000002F00F0D980582F00F0A48004F14206BF
:1041B00084F842703AE0A7F16303152BF6D801A00A
:1041C00050F823F01D42000831420008AD410008BC
:1041D000AD410008AD410008AD4100083142000882
:1041E000AD410008AD410008AD410008AD410008F7
:1041F0003F4300086142000821430008AD41000828
:10420000AD41000861430008AD410008614200086B
:10421000AD410008AD410008294300080B6804F1D6
:1042200042061A1D1B680A6084F842300123A4E08C
:10423000256808682E0600F104030AD505680B609E
:10424000002D03DA2D236D4284F843300A235E48A3
:1042500019E015F0400F05680B6018BF2DB2EFE7AD
:104260000B682568181D0860280601D51D6802E046
:104270006906FBD51D886F2F0CBF08230A235248FF
:10428000002184F843106668002EA8BF2168A6604C
:10429000A4BF21F0040121600DB9002E4DD01646B7
:1042A000B5FBF3F103FB1157C75D06F8017D2F46FF
:1042B000BB420D46F4D9082B0BD12368DF0708D584
:1042C000236961689942DEBF302306F8013C06F19C
:1042D000FF36921B22614B4621464046CDF800A096
:1042E00003AAFFF7DFFE01304CD14FF0FF3004B0DE
:1042F000BDE8F087344884F845700E68236856F8A6
:10430000045B1F060E6014D5D90744BF43F0200399
:1043100023601DB9236823F0200323601023AFE737
:10432000236843F0200323607823284884F845302D
:10433000E3E75E0648BFADB2E6E71646BBE70B68AB
:1043400026681D1D60690D6035061B6801D5186063
:1043500002E07106FBD51880002316462361BAE7F8
:104360000B681A1D0A601E6800213046626800F062
:1043700031F808B1801B606063682361002384F812
:104380004330A8E73246494640462369D0470130CA
:10439000ABD023689B0713D4E068039B9842B8BF57
:1043A0001846A4E70123324649464046D04701302B
:1043B0009BD00135E36803995B1AAB42F2DCEBE773
:1043C000002504F11906F5E72346000834460008E5
:1043D00070477047034610B5C9B20244934218466D
:1043E00001D1002003E0047801338C42F6D110BDE6
:1043F0000A44914200F1FF3300D1704710B511F823
:10440000014B914203F8014FF9D110BD884210B51C
:1044100001EB020402D98442234607D8431EA1427D
:1044200008D011F8012B03F8012FF8E701460244E8
:104430008A4200D110BD13F8014D02F8014DF7E793
:10444000F8B5074614460E4621B91146BDE8F840B6
:10445000FFF736BC22B9FFF7E7FB25462846F8BD33
:1044600000F014F8A0420FD221463846FFF728FC8E
:1044700005460028F2D031462246FFF7B9FF314603
:104480003846FFF7D1FBE9E73546E7E751F8043C4A
:10449000181F002BBCBF0B58C0187047F8B500BFE1
:1044A000F8BC08BC9E467047F8B500BFF8BC08BC15
:0444B0009E4670476D
:1044B4004D4F444520313A204155544F202020206F
:1044C400000000004C313A52454420204C323A4717
:1044D4005245454E000000004C313A5245442020DC
:1044E4004C323A414D424552000000004C313A47AB
:1044F4005245454E20204C323A52454400000000BB
:104504004C313A414D42455220204C323A524544B6
:1045140000000000202020205354415254494E47AB
:1045240020202020000000004D4F444520323A2036
:1045340053455420524544200000000054696D65E1
:104544003A20256420732020202020200000000031
:104554004D4F444520333A2053455420414D424564
:10456400520000004D4F444520343A205345542016
:10457400475245454E00000020204D414E55414CC8
:10458400204D4F44452020200000000053746570E6
:104594003A2047524E202D2052454420000000006E
:1045A400537465703A20524544202D2047524E20C2
:1045B40000000000537465703A20414D42202D20C4
:1045C400414D4220000000002058696E206368615C
:1045D4006F2056584C000000205669207875206CD6
:1045E4007900000000000000000000000102030444
:1045F4000607080900000000010203040203040581
:10460400060708090A0B0C0D0E0F10100102232DCA
:10461400302B2000686C4C006566674546470030C7
:104624003132333435363738394142434445460014
:104634003031323334353637383961626364656614
:044644000000000072
:044648003501000830
:04464C001101000850
:104650000500000002000000030000000A00000046
:104660000024F400100000000100000020000020E1
:10467000000000000000000000000000000000003A
:10468000000000000000000000000000000000002A
:10469000000000000000000000000000000000001A
:1046A000000000000000000000000000000000000A
:1046B00000000000000000000000000000000000FA
:1046C00000000000000000000000000000000000EA
:0400000508001C01D2
:00000001FF
