:020000040800F2
:1000000000280020C5200008552000085B200008BB
:1000100061200008672000086D2000080000000033
:100020000000000000000000000000007320000835
:100030007F200008000000008B20000897200008A7
:100040000D2100080D2100080D2100080D210008D8
:100050000D2100080D2100080D2100080D210008C8
:100060000D2100080D2100080D2100080D210008B8
:100070000D2100080D2100080D2100080D210008A8
:100080000D2100080D2100080D2100080D21000898
:100090000D2100080D2100080D2100080D21000888
:1000A0000D2100080D2100080D2100080D21000878
:1000B000A52000080D210008000000000D21000807
:1000C0000D21000800000000000000000D210008C4
:1000D000000000000D2100080D21000800000000B4
:1000E0000D2100080D2100080D210008000000006E
:1000F0000000000000000000000000000000000000
:0C01000000000000000000005FF808F1A3
:1001100010B5054C237833B9044B13B10448AFF341
:1001200000800123237010BD70000020000000003B
:100130005437000808B5034B1BB103490348AFF31C
:10014000008008BD00000000740000205437000843
:1001500081F0004102E000BF83F0004330B54FEA78
:1001600041044FEA430594EA050F08BF90EA020FE5
:100170001FBF54EA000C55EA020C7FEA645C7FEA78
:10018000655C00F0E2804FEA5454D4EB5555B8BF9B
:100190006D420CDD2C4480EA020281EA030382EA0C
:1001A000000083EA010180EA020281EA0303362D9E
:1001B00088BF30BD11F0004F4FEA01314FF4801C71
:1001C0004CEA113102D0404261EB410113F0004F83
:1001D0004FEA03334CEA133302D0524263EB43033A
:1001E00094EA050F00F0A780A4F10104D5F1200ED8
:1001F0000DDB02FA0EFC22FA05F2801841F1000133
:1002000003FA0EF2801843FA05F359410EE0A5F106
:1002100020050EF1200E012A03FA0EFC28BF4CF037
:10022000020C43FA05F3C01851EBE37101F00045ED
:1002300007D54FF0000EDCF1000C7EEB00006EEBFA
:100240000101B1F5801F1BD3B1F5001F0CD3490884
:100250005FEA30004FEA3C0C04F101044FEA4452DB
:1002600012F5800F80F09A80BCF1004F08BF5FEA62
:10027000500C50F1000041EB045141EA050130BD42
:100280005FEA4C0C404141EB0101013C28BFB1F554
:10029000801FE9D291F0000F04BF01460020B1FA9F
:1002A00081F308BF2033A3F10B03B3F120020CDA72
:1002B0000C3208DD02F1140CC2F10C0201FA0CF050
:1002C00021FA02F10CE002F11402D8BFC2F1200CB5
:1002D00001FA02F120FA0CFCDCBF41EA0C0190406B
:1002E000E41AA2BF01EB0451294330BD6FEA0404B4
:1002F0001F3C1CDA0C340EDC04F11404C4F120029F
:1003000020FA04F001FA02F340EA030021FA04F3B0
:1003100045EA030130BDC4F10C04C4F1200220FA07
:1003200002F001FA04F340EA0300294630BD21FA45
:1003300004F0294630BD94F0000F83F4801306BF0B
:1003400081F480110134013D4EE77FEA645C18BFFF
:100350007FEA655C29D094EA050F08BF90EA020F96
:1003600005D054EA000C04BF1946104630BD91EA8E
:10037000030F1EBF0021002030BD5FEA545C05D191
:100380004000494128BF41F0004130BD14F58004D0
:100390003CBF01F5801130BD01F0004545F0FE4144
:1003A00041F470014FF0000030BD7FEA645C1ABF79
:1003B000194610467FEA655C1CBF0B46024650EAB0
:1003C000013406BF52EA033591EA030F41F40021DC
:1003D00030BD00BF90F0000F04BF0021704730B562
:1003E0004FF4806404F132044FF000054FF0000137
:1003F00050E700BF90F0000F04BF0021704730B5F8
:100400004FF4806404F1320410F0004548BF4042CC
:100410004FF000013EE700BF42004FEAE2014FEA21
:1004200031014FEA02701FBF12F07F4393F07F4FFC
:1004300081F06051704732F07F4208BF704793F0FF
:100440007F4F04BF41F40021704730B54FF4607412
:1004500001F0004521F000411CE700BF50EA010215
:1004600008BF704730B54FF000050AE050EA0102BE
:1004700008BF704730B511F0004502D5404261EB2E
:1004800041014FF4806404F132045FEA915C3FF46F
:10049000D8AE4FF003025FEADC0C18BF03325FEA0C
:1004A000DC0C18BF033202EBDC02C2F1200300FABD
:1004B00003FC20FA02F001FA03FE40EA0E0021FAE2
:1004C00002F11444BDE600BF70B54FF0FF0C4CF4D0
:1004D000E06C1CEA11541DBF1CEA135594EA0C0F82
:1004E00095EA0C0F00F0DEF82C4481EA030621EABD
:1004F0004C5123EA4C5350EA013518BF52EA0335F8
:1005000041F4801143F4801338D0A0FB02CE4FF0A9
:100510000005E1FB02E506F00042E0FB03E54FF0D9
:100520000006E1FB03569CF0000F18BF4EF0010ED1
:10053000A4F1FF04B6F5007F64F5407404D25FEACD
:100540004E0E6D4146EB060642EAC62141EA555180
:100550004FEAC52040EA5E504FEACE2EB4F1FD0CC2
:1005600088BFBCF5E06F1ED8BEF1004F08BF5FEA40
:10057000500E50F1000041EB045170BD06F00046F2
:1005800046EA010140EA020081EA0301B4EB5C049F
:10059000C2BFD4EB0C0541EA045170BD41F4801197
:1005A0004FF0000E013C00F3AB8014F1360FDEBFBC
:1005B000002001F0004170BDC4F10004203C35DA98
:1005C0000C341BDC04F11404C4F1200500FA05F31B
:1005D00020FA04F001FA05F240EA020001F00042BC
:1005E00021F0004110EBD37021FA04F642EB060132
:1005F0005EEA430E08BF20EAD37070BDC4F10C045C
:10060000C4F1200500FA04F320FA05F001FA04F21F
:1006100040EA020001F0004110EBD37041F100010B
:100620005EEA430E08BF20EAD37070BDC4F1200516
:1006300000FA05F24EEA020E20FA04F301FA05F27E
:1006400043EA020321FA04F001F0004121FA04F226
:1006500020EA020000EBD3705EEA430E08BF20EAF6
:10066000D37070BD94F0000F0FD101F00046400030
:1006700041EB010111F4801F08BF013CF7D041EAB2
:10068000060195F0000F18BF704703F000465200B6
:1006900043EB030313F4801F08BF013DF7D043EA87
:1006A0000603704794EA0C0F0CEA135518BF95EA3D
:1006B0000C0F0CD050EA410618BF52EA4306D1D1C4
:1006C00081EA030101F000414FF0000070BD50EAE3
:1006D000410606BF1046194652EA430619D094EA6D
:1006E0000C0F02D150EA013613D195EA0C0F05D157
:1006F00052EA03361CBF104619460AD181EA0301AB
:1007000001F0004141F0FE4141F470014FF0000062
:1007100070BD41F0FE4141F4780170BD70B54FF0FD
:10072000FF0C4CF4E06C1CEA11541DBF1CEA13557D
:1007300094EA0C0F95EA0C0F00F0A7F8A4EB05045F
:1007400081EA030E52EA03354FEA013100F0888056
:100750004FEA03334FF0805545EA131343EA12631F
:100760004FEA022245EA111545EA10654FEA0026D4
:100770000EF000419D4208BF964244F1FD0404F58D
:10078000407402D25B084FEA3202B61A65EB0305E9
:100790005B084FEA32024FF480104FF4002CB6EBA6
:1007A000020E75EB030E22BFB61A754640EA0C0026
:1007B0005B084FEA3202B6EB020E75EB030E22BF66
:1007C000B61A754640EA5C005B084FEA3202B6EBA7
:1007D000020E75EB030E22BFB61A754640EA9C0066
:1007E0005B084FEA3202B6EB020E75EB030E22BF36
:1007F000B61A754640EADC0055EA060E18D04FEAF4
:10080000051545EA16754FEA06164FEAC30343EA93
:1008100052734FEAC2025FEA1C1CC0D111F4801F60
:100820000BD141EA00014FF000004FF0004CB6E759
:1008300011F4801F04BF01430020B4F1FD0C88BFF8
:10084000BCF5E06F3FF6AFAEB5EB030C04BFB6EB03
:10085000020C5FEA500C50F1000041EB045170BDF6
:100860000EF0004E4EEA113114EB5C04C2BFD4EB23
:100870000C0541EA045170BD41F480114FF0000EA7
:10088000013C90E645EA060E8DE60CEA135594EA23
:100890000C0F08BF95EA0C0F3FF43BAF94EA0C0F26
:1008A0000AD150EA01347FF434AF95EA0C0F7FF49B
:1008B00025AF104619462CE795EA0C0F06D152EAEF
:1008C00003353FF4FDAE1046194622E750EA4106D3
:1008D00018BF52EA43067FF4C5AE50EA41047FF4E4
:1008E0000DAF52EA43057FF4EBAE12E74FEA410247
:1008F00012F5001215D211D56FF47873B3EB625272
:1009000012D94FEAC12343F0004343EA505311F098
:10091000004F23FA02F018BF404270474FF000002A
:10092000704750EA013005D111F0004008BF6FF068
:10093000004070474FF00000704700BF80B483B0A4
:1009400000AF7860094A7B6852F82330012B06D14A
:10095000064A7B68002142F82310012300E00023AF
:1009600018460C37BD4680BC704700BF8C00002085
:1009700080B483B000AF7860044A7B68012142F8FC
:10098000231000BF0C37BD4680BC70478C00002090
:1009900080B582B000AF00237B60B4E05E4A7B6824
:1009A00052F823205D497B6841F823205C4A7B682C
:1009B00052F8232058497B6841F823207B68002B9C
:1009C0000AD10821574801F08DFE03461946544AC2
:1009D0007B6842F8231028E07B68012B0AD11021A4
:1009E000504801F07FFE034619464D4A7B6842F8A5
:1009F00023101AE07B68022B0AD12021494801F01C
:100A000071FE03461946464A7B6842F823100CE003
:100A10007B68032B09D10221424801F063FE0346A3
:100A200019463F4A7B6842F823103B4A7B6852F8DC
:100A300023203A497B6851F823309A4259D1364AEB
:100A40007B6852F8232036497B6851F823309A425C
:100A50004FD1354A7B6852F8232031497B6851F8E1
:100A600023309A422BD02E4A7B6852F823202E49FD
:100A70007B6841F823202A4A7B6852F82330002BF8
:100A80003DD17868FFF774FF284A7B6852F823301D
:100A9000002B0AD1264B1B684FF4FA6292FBF3F24B
:100AA00024497B6841F8232029E0214B1B68FA2266
:100AB00092FBF3F21F497B6841F823201FE01D4A97
:100AC0007B6852F823305A1E1A497B6841F823206C
:100AD000184A7B6852F82330002B10D1124A7B68E9
:100AE000012142F82310114A7B68012142F82310AA
:100AF00005E00E4A7B68002142F8231000E000BFA9
:100B00007B6801337B607B68032B7FF747AF00BFB7
:100B100000BF0837BD4680BD100000200000002047
:100B20002000002000080140300000209C00002030
:100B300030010020AC00002080B586B000AF7860A6
:100B4000144A07F1080307CA03C31A8000237B6114
:100B500018E001227B6902FA03F399B207F1080257
:100B60007B6813441B781A467B6942FA03F3DBB2B5
:100B700003F00103DBB21A46074801F0CAFD7B69A6
:100B800001337B617B69062BE3DD00BF00BF1837B3
:100B9000BD4680BD6C370008000C014080B582B0B6
:100BA00000AF7860414A7B6852F823301846FFF75F
:100BB000C3FF7B68032B73D801A252F823F000BF58
:100BC000D10B0008050C0008390C00086D0C00085A
:100BD000374B01221A6000224021364801F099FD6E
:100BE00001228021334801F094FD01224FF48071ED
:100BF000304801F08EFD01224FF400712D4801F0C4
:100C000088FD4EE02A4B02221A6001224021294829
:100C100001F07FFD00228021264801F07AFD0122AB
:100C20004FF48071234801F074FD01224FF40071EC
:100C3000204801F06EFD34E01D4B03221A600122B2
:100C400040211C4801F065FD01228021194801F076
:100C500060FD00224FF48071164801F05AFD012218
:100C60004FF40071134801F054FD1AE0104B0022BC
:100C70001A60012240210F4801F04BFD0122802122
:100C80000C4801F046FD01224FF48071094801F043
:100C900040FD00224FF40071064801F03AFD00E0EB
:100CA00000BF00BF0837BD4680BD00BF4000002028
:100CB000BC0000200008014080B400AF9B4B1A68C4
:100CC0009B4B1B689A4221DC994B1A68974B1B6817
:100CD000D31A0133974A82FB03129210DB17D31AFF
:100CE000954A1360924B1A68904B1B68D31A591C93
:100CF000904B83FB01239A10CB17D21A13469B000B
:100D000013445B00CA1A8C4B5A605DE0884B1A682A
:100D10008A4B1B681A44854B1B689A4227DB844B1D
:100D20001A68864B1B681A44804B1B68D31A013320
:100D3000804A82FB03129210DB17D31A7E4A13609B
:100D40007B4B1A687D4B1B681A44784B1B68D31A7F
:100D5000591C784B83FB01239A10CB17D21A1346E8
:100D60009B0013445B00CA1A734B5A602CE0704B13
:100D70001A68724B1B681A44714B1B681A446B4B00
:100D80001B68D31A01336B4A82FB03129210DB17E4
:100D9000D31A694A1360664B1A68684B1B681A4479
:100DA000674B1B681A44614B1B68D31A591C614B73
:100DB00083FB01239A10CB17D21A13469B001344CE
:100DC0005B00CA1A5C4B5A60584B1B680133574A88
:100DD0001360574B1A685A4B1B681A44574B1B68D1
:100DE0001A44524B1B689A4202DA504B01221A6095
:100DF000544B1A68514B1B689A4221DC4F4B1A68BE
:100E0000504B1B68D31A01334A4A82FB03129210DB
:100E1000DB17D31A484A9360484B1A68494B1B6842
:100E2000D31A591C434B83FB01239A10CB17D21AB8
:100E300013469B0013445B00CA1A3F4BDA605DE027
:100E40003F4B1A683D4B1B681A443E4B1B689A4245
:100E500027DB3B4B1A68394B1B681A44394B1B681C
:100E6000D31A0133334A82FB03129210DB17D31AD1
:100E7000314A9360324B1A68304B1B681A44314B2D
:100E80001B68D31A591C2B4B83FB01239A10CB17D9
:100E9000D21A13469B0013445B00CA1A264BDA6031
:100EA0002CE0234B1A68254B1B681A44244B1B6803
:100EB0001A44244B1B68D31A01331E4A82FB0312C7
:100EC0009210DB17D31A1C4A9360194B1A681B4BFC
:100ED0001B681A441A4B1B681A441A4B1B68D31A16
:100EE000591C144B83FB01239A10CB17D21A1346BB
:100EF0009B0013445B00CA1A0F4BDA60114B1B684E
:100F00000133104A13600A4B1A680D4B1B681A44D0
:100F10000A4B1B681A440B4B1B689A4202DA094BB6
:100F200001221A6000BFBD4680BC704750000020FF
:100F300058000020676666664000002060000020C0
:100F40005C0000205400002080B400AF114B002250
:100F50001A60104B02225A600F4B1B680F4A82FB2B
:100F600003129210DB17D31A0A4A93600A4B1968CE
:100F70000A4B83FB01239A10CB17D21A13469B000E
:100F800013445B00CA1A034BDA6000BFBD4680BC45
:100F9000704700BF4000002058000020676666666A
:100FA00080B400AF114B00221A60104B03225A602C
:100FB0000F4B1B680F4A82FB03129210DB17D31AE8
:100FC0000A4A93600A4B19680A4B83FB01239A1063
:100FD000CB17D21A13469B0013445B00CA1A034B6B
:100FE000DA6000BFBD4680BC704700BF40000020F3
:100FF0005C0000206766666680B400AF114B00227B
:101000001A60104B04225A600F4B1B680F4A82FB78
:1010100003129210DB17D31A0A4A93600A4B19681D
:101020000A4B83FB01239A10CB17D21A13469B005D
:1010300013445B00CA1A034BDA6000BFBD4680BC94
:10104000704700BF400000206000002067666666B1
:1010500080B500AF00224FF48061114801F059FBC8
:1010600001224FF400610E4801F053FB01224FF4BE
:1010700080510B4801F04DFB01224FF4005108480C
:1010800001F047FB01224FF48041054801F041FB8C
:1010900000224FF40041024801F03BFB00BF80BD3D
:1010A0000008014080B582B000AF78607B68012BFA
:1010B00024D101224FF480613A4801F02AFB012239
:1010C0004FF40061374801F024FB00224FF48051B7
:1010D000344801F01EFB00224FF40051314801F06A
:1010E00018FB01224FF480412E4801F012FB01222F
:1010F0004FF400412B4801F00CFB4EE07B68022BC3
:1011000024D100224FF48061264801F002FB012225
:101110004FF40061234801F0FCFA01224FF48051A2
:10112000204801F0F6FA01224FF400511D4801F069
:10113000F0FA01224FF480411A4801F0EAFA002245
:101140004FF40041174801F0E4FA26E07B68032BD6
:1011500023D101224FF48061124801F0DAFA002213
:101160004FF400610F4801F0D4FA01224FF480518E
:101170000C4801F0CEFA01224FF40051094801F069
:10118000C8FA00224FF48041064801F0C2FA012259
:101190004FF40041034801F0BCFA00BF0837BD46D8
:1011A00080BD00BF0008014080B500AFCC4B1B687C
:1011B000322B00F2208501A252F823F08912000898
:1011C00093120008F5160008A3180008271A000853
:1011D000F71B0008F71B0008F71B0008F71B0008A7
:1011E000F71B0008F71B0008EF120008F5130008B2
:1011F000AB140008D1150008F71B0008F71B000806
:10120000F71B0008F71B0008F71B0008F71B000876
:101210007717000821180008F71B0008F71B0008C3
:10122000F71B0008F71B0008F71B0008F71B000856
:10123000F71B0008F71B000825190008A91900086A
:10124000F71B0008F71B0008F71B0008F71B000836
:10125000F71B0008F71B0008F71B0008F71B000826
:10126000C51A0008731B0008F71B0008F71B0008CD
:10127000F71B0008F71B0008F71B0008F71B000806
:10128000F71B000887160008954B01221A6000F032
:10129000C9BC934B0B221A60FFF7DAFE914B012277
:1012A0001A60904B1B68904A1360904B00221A60A2
:1012B000FFF702FD8D4B1B681846FFF76FFC8C4B48
:1012C0001B684FF47A7202FB03F31946002000F00A
:1012D00005FE4FF47A71012000F000FEFA21022091
:1012E00000F0FCFD032000F017FE00F09BBC012085
:1012F000FFF724FB0346012B15D1794B32221A60EC
:101300007C4B01221A60002000F006FE012000F054
:1013100003FE022000F000FE764B1B681846FFF724
:10132000C1FE00F07FBC0320FFF708FB0346012B42
:1013300013D16B4B0C221A606F4B1B684FF47A72FF
:1013400002FB03F31946002000F0C8FDFFF7B4FCD0
:101350004FF47A71012000F0C1FD00224FF480614A
:10136000664801F0D6F901224FF40061634801F0AC
:10137000D0F901224FF40051604801F0CAF900226F
:101380004FF400415D4801F0C4F95D4B1B68012B2F
:101390000CD1534B0C221A60574B1B684FF47A72D6
:1013A00002FB03F31946002000F098FD544B5B68E4
:1013B000012B06D1FFF780FC4FF47A71012000F079
:1013C0008DFD4F4B9B68012B08D1484B1B6818467D
:1013D000FFF7E4FBFA21022000F080FD0020FFF778
:1013E000ADFA0346012B40F008843D4B02221A60FF
:1013F00000F003BC0120FFF7A1FA0346012B14D132
:10140000374B32221A603B4B01221A60002000F059
:1014100083FD012000F080FD022000F07DFD354BB2
:101420001B681846FFF73EFEFCE301224FF4004123
:10143000324801F06EF900224FF480412F4801F04C
:1014400068F92F4B1B68012B0CD1254B0D221A601C
:10145000274B1B684FF47A7202FB03F319460020F6
:1014600000F03CFD264B5B68012B06D1FFF724FC06
:101470004FF47A71012000F031FD214B9B68012B64
:1014800008D11A4B1B681846FFF788FBFA21022087
:1014900000F024FD0020FFF751FA0346012B40F035
:1014A000AE830F4B02221A60A9E30120FFF746FA30
:1014B0000346012B26D10A4B32221A600D4B012222
:1014C0001A60002000F028FD012000F025FD022018
:1014D00000F022FD074B1B681846FFF7E3FDA1E370
:1014E000C00000205400002050000020BC0000205C
:1014F00060000020C40000205C00002000080140C3
:10150000D80000200320FFF719FA0346012B13D15E
:10151000BB4B0E221A60BB4B1B684FF47A7202FB66
:1015200003F31946002000F0D9FCFFF7C5FB4FF488
:101530007A71012000F0D2FC01224FF48061B248A0
:1015400001F0E7F800224FF48051AF4801F0E1F8D4
:1015500001224FF48041AC4801F0DBF800224FF447
:101560000051A94801F0D5F8A84B1B68012B0CD1FC
:10157000A34B0E221A60A34B1B684FF47A7202FB36
:1015800003F31946002000F0A9FCA04B5B68012B77
:1015900006D1FFF791FB4FF47A71012000F09EFC19
:1015A0009A4B9B68012B08D1994B1B681846FFF793
:1015B000F5FAFA21022000F091FC0020FFF7BEF9B5
:1015C0000346012B40F01D838D4B02221A6018E365
:1015D0000120FFF7B3F90346012B14D1884B3222C7
:1015E0001A608C4B01221A60002000F095FC01204B
:1015F00000F092FC022000F08FFC864B1B6818461E
:10160000FFF750FD0EE300224FF400617E4801F029
:1016100080F801224FF480517B4801F07AF87B4B2F
:101620001B68012B0CD1764B0B221A607A4B1B687E
:101630004FF47A7202FB03F31946002000F04EFCCF
:10164000724B5B68012B06D1FFF736FB4FF47A71C2
:10165000012000F043FC6D4B9B68012B08D16C4BC3
:101660001B681846FFF79AFAFA21022000F036FCB0
:101670000020FFF763F90346012B40F0C482604B62
:1016800002221A60BFE2634B1B68002B11D1614B31
:1016900001221A60002000F03FFC012000F03CFC19
:1016A000022000F039FC5B4B1B681846FFF7FAFC80
:1016B000B8E20120FFF742F90346012B40F0A58272
:1016C000544B1B680133534A1360524B1B68002B69
:1016D00009DD504B1B68032B05DC4E4B1B6818467D
:1016E000FFF7E0FC91E24B4B00221A60444B0122D1
:1016F0001A608AE2424B15221A6000224FF4806180
:10170000414801F006F801224FF400613E4801F023
:1017100000F801224FF480513B4800F0FAFF00220C
:101720004FF40051384800F0F4FF01224FF480419B
:10173000354800F0EEFF01224FF40041324800F03E
:10174000E8FF334B00221A60FFF7FEFB304B1B68AB
:101750001846FFF723FAFA21022000F0BFFB4FF4EE
:10176000FA71032000F0BAFB002000F0D5FB012045
:1017700000F0D2FB56E2254B9B68012B0AD1FFF704
:10178000E3FB234B1B681846FFF708FAFA210220F7
:1017900000F0A4FB1D4BDB68012B0DD14FF48061E1
:1017A000194800F0CEFF4FF40051174800F0C9FF70
:1017B000FA21032000F092FB0020FFF7BFF8034658
:1017C000012B02D10E4B03221A600120FFF7B6F85D
:1017D0000346012B40F01B82094B16221A600F4B67
:1017E0001B68622B05DD0C4B1B6801330B4A136031
:1017F0000DE20A4B1B680133084A136007E200BF81
:10180000C00000205C00002000080140D80000203B
:10181000BC000020C4000020600000205800002010
:10182000A14B9B68012B0AD1FFF78EFB9F4B1B68D6
:101830001846FFF7B3F9FA21022000F04FFB9A4B4C
:10184000DB68012B0DD14FF48061994800F079FFDE
:101850004FF40051964800F074FFFA21032000F085
:101860003DFB0120FFF76AF80346012B0ED1914B97
:101870001B68622B05DD904B1B6801338D4A13609A
:1018800004E08C4B1B6801338A4A13600220FFF787
:1018900055F80346012B40F0BC81884B15221A6095
:1018A000B7E1864B1F221A6001224FF48061804805
:1018B00000F02FFF00224FF400617D4800F029FF67
:1018C00001224FF480517A4800F023FF01224FF4A7
:1018D0000051774800F01DFF00224FF4804174480A
:1018E00000F017FF01224FF40041714800F011FF92
:1018F0006E4B00221A60FFF753FB6C4B1B681846B7
:10190000FFF74CF9FA21022000F0E8FA4FF4FA71DF
:10191000032000F0E3FA002000F0FEFA012000F0BE
:10192000FBFA7FE1604B9B68012B0AD1FFF738FB84
:101930005E4B1B681846FFF731F9FA21022000F0D0
:10194000CDFA594BDB68012B0DD14FF4006158489B
:1019500000F0F7FE4FF48041554800F0F2FEFA2106
:10196000032000F0BBFA0020FEF7E8FF0346012B3E
:1019700002D1524B04221A600120FEF7DFFF03461A
:10198000012B40F048814D4B20221A604C4B1B68C4
:10199000032B03DD4A4B01221A603CE1484B1B68D4
:1019A0000133474A136036E13F4B9B68012B0AD154
:1019B000FFF7F6FA3D4B1B681846FFF7EFF8FA21E0
:1019C000022000F08BFA384BDB68012B0DD14FF46D
:1019D0000061374800F0B5FE4FF48041344800F014
:1019E000B0FEFA21032000F079FA0120FEF7A6FFED
:1019F0000346012B0CD1324B1B68032B03DD304B0C
:101A000001221A6004E02E4B1B6801332C4A13603C
:101A10000220FEF793FF0346012B40F0FE80274B88
:101A20001F221A60F9E0254B29221A6001224FF487
:101A300080611F4800F06DFE01224FF400611C48D8
:101A400000F067FE00224FF48051194800F061FE5B
:101A500001224FF40051164800F05BFE01224FF4C2
:101A60008041134800F055FE00224FF40041104819
:101A700000F04FFE0D4B00221A60FFF7BDFA0B4B32
:101A80001B681846FFF78AF8FA21022000F026FAB0
:101A90004FF4FA71032000F021FA002000F03CFA24
:101AA000012000F039FABDE0D8000020BC00002081
:101AB000000801405800002060000020C000002005
:101AC0005C000020584B9B68012B0AD1FFF794FA69
:101AD000564B1B681846FFF761F8FA21022000F008
:101AE000FDF9514BDB68012B0DD14FF4805150486B
:101AF00000F027FE4FF400414D4800F022FEFA218D
:101B0000032000F0EBF90020FEF718FF0346012B3D
:101B100014D1484B01221A60474B1A68474B1B6887
:101B20009A4204DC454B1B680133434A1360424B25
:101B30001A68424B1B681344414A13600120FEF7A8
:101B4000FDFE0346012B6AD13A4B2A221A603A4B1A
:101B50001B68622B07DD3A4B1A68384B1B68D31A97
:101B6000354A13605BE0344B1B680133324A136023
:101B700055E02D4B9B68012B0AD1FFF73DFA2B4B0B
:101B80001B681846FFF70AF8FA21022000F0A6F9B0
:101B9000254BDB68012B0DD14FF48051244800F018
:101BA000D0FD4FF40041224800F0CBFDFA21032084
:101BB00000F094F90120FEF7C1FE0346012B10D17D
:101BC0001D4B1B68622B07DD1D4B1A681B4B1B68E6
:101BD000D31A194A136004E0174B1B680133164AE5
:101BE00013600220FEF7AAFE0346012B19D1114B08
:101BF00029221A6015E000BF14E000BF12E000BF08
:101C000010E000BF0EE000BF0CE000BF0AE000BF24
:101C100008E000BF06E000BF04E000BF02E000BF34
:101C200000E000BF00BF80BDD8000020BC00002045
:101C300000080140C0000020600000205C0000207F
:101C40005800002080B500AF00F062FA00F00CF8F8
:101C500000F0D2F800F044F8024801F0B7F9FFF7BD
:101C6000A3FAFCE7E800002080B590B000AF07F1D0
:101C7000180328220021184601F064FD3B1D0022B4
:101C80001A605A609A60DA601A610223BB6101230C
:101C9000BB621023FB6200237B6307F11803184625
:101CA00000F068FD0346002B01D000F011F90F236E
:101CB0007B600023BB600023FB6000233B610023AB
:101CC0007B613B1D0021184600F0D4FF0346002B2A
:101CD00001D000F0FDF800BF4037BD4680BD0000D8
:101CE000B0B586B000AF07F1080300221A605A6051
:101CF0009A60DA603B4600221A605A603A4B4FF015
:101D000080421A60384B41F63F725A60364B0022CF
:101D10009A60354B0922DA60334B00221A61324B4C
:101D200000229A61304801F001F90346002B01D0EE
:101D300000F0CEF84FF48053BB6007F1080319465A
:101D4000294801F097FA0346002B01D000F0C0F8B3
:101D500000233B6000237B603B461946224801F08C
:101D600063FC0346002B01D000F0B2F81E4B5B6809
:101D700001331846FEF72EFB02460B4618A1D1E9A7
:101D80000001FEF7CBFC02460B4614461D46164BDF
:101D9000DB6801331846FEF71DFB02460B46204662
:101DA0002946FEF7BBFC02460B464FF000000F49E8
:101DB000FEF7B4FC02460B46104619464FF00002EF
:101DC0000B4BFEF781FB02460B4610461946FEF709
:101DD0008DFD0346074A136000BF1837BD46B0BDEE
:101DE0000000000080845E41E80000200000F03F19
:101DF00000408F403001002080B586B000AF07F171
:101E0000080300221A605A609A60DA60274B9B69C7
:101E1000264A43F004039361244B9B6903F00403B7
:101E20007B607B68214B9B69204A43F008039361E8
:101E30001E4B9B6903F008033B603B6800224FF692
:101E4000C0711B4800F065FC00227F21194800F09A
:101E500060FC3A23BB600023FB6001233B6107F178
:101E600008031946124800F0C3FA4FF6C073BB606E
:101E70000123FB6000233B6102237B6107F1080320
:101E800019460B4800F0B4FA7F23BB600123FB60C6
:101E900000233B6102237B6107F1080319460548D3
:101EA00000F0A6FA00BF1837BD4680BD0010024002
:101EB00000080140000C014080B582B000AF78609E
:101EC00000F042F8FEF764FD00BF0837BD4680BD54
:101ED00080B400AF72B600BFFEE7000080B483B0EC
:101EE00000AF78603960094B1B683A6892FBF3F2E7
:101EF00007497B6841F82320064A7B68002142F8A5
:101F0000231000BF0C37BD4680BC70473001002055
:101F1000C8000020D800002080B483B000AF7860F3
:101F2000074A7B68002142F82310064A7B6800219B
:101F300042F8231000BF0C37BD4680BC704700BF7D
:101F4000C8000020D800002080B483B000AF002378
:101F50007B601CE0124A7B6852F82330002B13DDB3
:101F60000F4A7B6852F823305A1E0D497B6841F8AE
:101F700023200B4A7B6852F82330002B04DC094AEB
:101F80007B68012142F823107B6801337B607B680A
:101F9000032BDFDD00BF00BF0C37BD4680BC7047A0
:101FA000C8000020D800002080B485B000AF154BD9
:101FB0009B69144A43F001039361124B9B6903F040
:101FC0000103BB60BB680F4BDB690E4A43F08053D3
:101FD000D3610C4BDB6903F080537B607B680A4B59
:101FE0005B68FB60FB6823F0E063FB60FB6843F029
:101FF0008063FB60044AFB68536000BF1437BD4632
:1020000080BC7047001002400000014080B584B0E1
:1020100000AF78607B681B68B3F1804F13D10C4B25
:10202000DB690B4A43F00103D361094BDB6903F021
:102030000103FB60FB68002200211C2000F0A1F9D5
:102040001C2000F0BAF900BF1037BD4680BD00BFAC
:102050000010024080B400AFFEE780B400AFFEE79E
:1020600080B400AFFEE780B400AFFEE780B400AFFD
:10207000FEE780B400AF00BFBD4680BC704780B4AF
:1020800000AF00BFBD4680BC704780B400AF00BF4A
:10209000BD4680BC704780B500AF00F07FF800BF40
:1020A00080BD000080B500AF024800F0DBFF00BF3C
:1020B00080BD00BFE800002080B400AF00BFBD4677
:1020C00080BC7047FFF7F8FF0B480C490C4A00230F
:1020D00002E0D458C4500433C4188C42F9D3094ADE
:1020E000094C002301E013600432A242FBD301F04B
:1020F00005FBFFF7A7FD70470000002070000020DF
:10210000A43700087000002038010020FEE700001E
:1021100080B500AF084B1B68074A43F010031360FB
:10212000032000F023F90F2000F008F8FFF73CFF30
:102130000023184680BD00BF0020024080B582B059
:1021400000AF7860124B1A68124B1B7819464FF497
:102150007A73B3FBF1F3B2FBF3F3184600F03BF9EB
:102160000346002B01D001230EE07B680F2B0AD819
:10217000002279684FF0FF3000F003F9064A7B68CF
:102180001360002300E0012318460837BD4680BDD8
:10219000640000206C0000206800002080B400AFC4
:1021A000054B1B781A46054B1B681344034A136002
:1021B00000BFBD4680BC70476C0000203401002089
:1021C00080B400AF024B1B681846BD4680BC704708
:1021D0003401002080B485B000AF78607B6803F0E4
:1021E0000703FB600C4BDB68BB60BA684FF6FF036C
:1021F0001340BB60FB681A02BB68134343F0BF6324
:1022000043F40033BB60044ABB68D36000BF14379B
:10221000BD4680BC704700BF00ED00E080B400AF59
:10222000044BDB681B0A03F007031846BD4680BC5D
:10223000704700BF00ED00E080B483B000AF0346FC
:10224000FB7197F90730002B0BDBFB7903F01F02C2
:10225000064997F907305B09012000FA02F241F8BC
:10226000232000BF0C37BD4680BC704700E100E072
:1022700080B483B000AF03463960FB7197F9073033
:10228000002B0ADB3B68DAB20C4997F907301201E0
:10229000D2B20B4483F800230AE03B68DAB2084963
:1022A000FB7903F00F03043B1201D2B20B441A7600
:1022B00000BF0C37BD4680BC704700BF00E100E0A6
:1022C00000ED00E080B489B000AFF860B9607A60DA
:1022D000FB6803F00703FB61FB69C3F10703042BF1
:1022E00028BF0423BB61FB690433062B02D9FB69B9
:1022F000033B00E000237B614FF0FF32BB6902FA31
:1023000003F3DA43BB681A407B699A404FF0FF3110
:102310007B6901FA03F3D9437B680B4013431846EA
:102320002437BD4680BC704780B582B000AF78606E
:102330007B68013BB3F1807F01D301230FE00A4AA0
:102340007B68013B53600F214FF0FF30FFF790FF98
:10235000054B00229A60044B07221A60002318469E
:102360000837BD4680BD00BF10E000E080B582B0F8
:1023700000AF78607868FFF72DFF00BF0837BD46D3
:1023800080BD80B586B000AF0346B9607A60FB734C
:1023900000237B61FFF742FF78617A68B96878694A
:1023A000FFF790FF024697F90F3011461846FFF7E6
:1023B0005FFF00BF1837BD4680BD80B582B000AF5B
:1023C0000346FB7197F907301846FFF735FF00BF4A
:1023D0000837BD4680BD80B582B000AF78607868B0
:1023E000FFF7A2FF034618460837BD4680BD000030
:1023F00080B48BB000AF7860396000237B6200232B
:102400003B6248E101227B6A02FA03F3FB613B680D
:102410001B68FA691340BB61BA69FB699A4240F0D4
:1024200037813B685B68A34A93425ED0A14A9342DE
:1024300075D8A14A934258D09F4A93426FD89F4A79
:10244000934252D09D4A934269D89D4A93424CD0C0
:102450009B4A934263D89B4A934246D0994A9342FF
:102460005DD8122B2AD8122B59D801A252F823F08A
:10247000EB240008C5240008D7240008192500080B
:102480001F2500081F2500081F2500081F2500081C
:102490001F2500081F2500081F2500081F2500080C
:1024A0001F2500081F2500081F2500081F250008FC
:1024B0001F250008CD240008E1240008824A934229
:1024C00013D02CE03B68DB683B6229E03B68DB68AB
:1024D00004333B6224E03B68DB6808333B621FE067
:1024E0003B68DB680C333B621AE03B689B68002B5F
:1024F00002D104233B6213E03B689B68012B05D1AA
:1025000008233B627B68FA691A6109E008233B6291
:102510007B68FA695A6103E000233B6200E000BF78
:10252000BB69FF2B01D87B6801E07B6804337B61CA
:10253000BB69FF2B02D87B6A9B0002E07B6A083BE9
:102540009B003B617B691A680F213B6901FA03F329
:10255000DB431A40396A3B6901FA03F31A437B698A
:102560001A603B685B6803F08053002B00F090809A
:10257000564B9B69554A43F001039361534B9B694A
:1025800003F00103BB60BB68514A7B6A9B080233BE
:1025900052F82330FB607B6A03F003039B000F2299
:1025A00002FA03F3DB43FA681340FB607B68494A95
:1025B00093420DD07B68484A934207D07B68474AD4
:1025C000934201D1022304E0032302E0012300E04F
:1025D00000237A6A02F0030292009340FA681343E0
:1025E000FB603B497B6A9B080233FA6841F8232071
:1025F0003B685B6803F48013002B06D0384B9A6865
:102600003749BB6913438B6006E0354B9A68BB6959
:10261000DB43334913408B603B685B6803F4001372
:10262000002B06D02E4BDA682D49BB691343CB60D3
:1026300006E02B4BDA68BB69DB4329491340CB60CA
:102640003B685B6803F40033002B06D0244B5A68C8
:102650002349BB6913434B6006E0214B5A68BB69B1
:10266000DB431F4913404B603B685B6803F48033D6
:10267000002B06D01A4B1A681949BB6913430B602B
:1026800006E0174B1A68BB69DB43154913400B6022
:102690007B6A01337B623B681A687B6A22FA03F328
:1026A000002B7FF4AFAE00BF00BF2C37BD4680BC0F
:1026B000704700BF000032100000311000002210EF
:1026C0000000211000001210000011100010024044
:1026D0000000014000080140000C014000100140D2
:1026E0000004014080B485B000AF78600B467B8069
:1026F0007B689A687B881340002B02D00123FB7310
:1027000001E00023FB73FB7B18461437BD4680BCF9
:10271000704780B483B000AF78600B467B8013466F
:102720007B707B78002B03D07A887B681A6103E08A
:102730007B881A047B681A6100BF0C37BD4680BCD9
:10274000704780B485B000AF78600B467B807B68B3
:10275000DB68FB607A88FB6813401A04FB68D94386
:102760007B880B401A437B681A6100BF1437BD4653
:1027700080BC704780B586B000AF78607B68002B66
:1027800001D101236CE27B681B6803F00103002B7D
:1027900000F08780924B5B6803F00C03042B0CD095
:1027A0008F4B5B6803F00C03082B12D18C4B5B68DA
:1027B00003F48033B3F5803F0BD1894B1B6803F4DE
:1027C0000033002B6CD07B685B68002B68D1012341
:1027D00046E27B685B68B3F5803F06D1804B1B689F
:1027E0007F4A43F4803313602EE07B685B68002BE4
:1027F0000CD17B4B1B687A4A23F480331360784BEF
:102800001B68774A23F4802313601DE07B685B68B4
:10281000B3F5A02F0CD1724B1B68714A43F480238F
:1028200013606F4B1B686E4A43F4803313600BE0F8
:102830006B4B1B686A4A23F480331360684B1B6838
:10284000674A23F4802313607B685B68002B13D0F6
:10285000FFF7B6FC386108E0FFF7B2FC02463B69BF
:10286000D31A642B01D90323FAE15D4B1B6803F4EF
:102870000033002BF0D014E0FFF7A2FC386108E031
:10288000FFF79EFC02463B69D31A642B01D9032350
:10289000E6E1534B1B6803F40033002BF0D100E05A
:1028A00000BF7B681B6803F00203002B63D04C4B16
:1028B0005B6803F00C03002B0BD0494B5B6803F003
:1028C0000C03082B1CD1464B5B6803F48033002BB0
:1028D00016D1434B1B6803F00203002B05D07B6825
:1028E0001B69012B01D00123BAE13D4B1B6823F08A
:1028F000F8027B685B69DB00394913430B603AE0FF
:102900007B681B69002B20D0364B01221A60FFF731
:1029100057FC386108E0FFF753FC02463B69D31AC5
:10292000022B01D903239BE12D4B1B6803F002030B
:10293000002BF0D02A4B1B6823F0F8027B685B6900
:10294000DB00274913430B6015E0264B00221A6079
:10295000FFF736FC386108E0FFF732FC02463B69BE
:10296000D31A022B01D903237AE11D4B1B6803F014
:102970000203002BF0D17B681B6803F00803002BD7
:102980003AD07B689B69002B19D0174B01221A6043
:10299000FFF716FC386108E0FFF712FC02463B69BE
:1029A000D31A022B01D903235AE10D4B5B6A03F0C2
:1029B0000203002BF0D0012000F09AFA1CE00A4B31
:1029C00000221A60FFF7FCFB38610FE0FFF7F8FB0D
:1029D00002463B69D31A022B08D9032340E100BF0A
:1029E0000010024000004242800442429E4B5B6A5B
:1029F00003F00203002BE9D17B681B6803F004039A
:102A0000002B00F0A6800023FB75974BDB6903F0D9
:102A10008053002B0DD1944BDB69934A43F08053D4
:102A2000D361914BDB6903F08053BB60BB6801232A
:102A3000FB758E4B1B6803F48073002B18D18B4BF6
:102A40001B688A4A43F480731360FFF7B9FB38614F
:102A500008E0FFF7B5FB02463B69D31A642B01D9A6
:102A60000323FDE0814B1B6803F48073002BF0D03F
:102A70007B68DB68012B06D17B4B1B6A7A4A43F0EB
:102A8000010313622DE07B68DB68002B0CD1764BD1
:102A90001B6A754A23F001031362734B1B6A724A67
:102AA00023F0040313621CE07B68DB68052B0CD168
:102AB0006D4B1B6A6C4A43F0040313626A4B1B6A3A
:102AC000694A43F0010313620BE0674B1B6A664AD5
:102AD00023F001031362644B1B6A634A23F004036F
:102AE00013627B68DB68002B15D0FFF769FB386148
:102AF0000AE0FFF765FB02463B69D31A41F28832D0
:102B0000934201D90323ABE0574B1B6A03F0020346
:102B1000002BEED014E0FFF753FB38610AE0FFF71B
:102B20004FFB02463B69D31A41F28832934201D9E6
:102B3000032395E04C4B1B6A03F00203002BEED1FC
:102B4000FB7D012B05D1484BDB69474A23F08053BD
:102B5000D3617B68DB69002B00F08180424B5B68AE
:102B600003F00C03082B61D07B68DB69022B46D194
:102B70003F4B00221A60FFF723FB386108E0FFF7A4
:102B80001FFB02463B69D31A022B01D9032367E0DE
:102B9000354B1B6803F00073002BF0D17B681B6A78
:102BA000B3F5803F08D1304B5B6823F400327B687B
:102BB0009B682D4913434B602B4B5B6823F47412C5
:102BC0007B68196A7B685B6A0B43274913434B6038
:102BD000274B01221A60FFF7F3FA386108E0FFF78C
:102BE000EFFA02463B69D31A022B01D9032337E0DF
:102BF0001D4B1B6803F00073002BF0D02FE01C4B23
:102C000000221A60FFF7DCFA386108E0FFF7D8FA13
:102C100002463B69D31A022B01D9032320E0124B51
:102C20001B6803F00073002BF0D118E07B68DB69B0
:102C3000012B01D1012313E00B4B5B68FB60FB68A8
:102C400003F480327B681B6A9A4206D1FB6803F466
:102C500070127B685B6A9A4201D0012300E0002376
:102C600018461837BD4680BD001002400070004075
:102C70006000424280B584B000AF786039607B6804
:102C8000002B01D10123D0E06A4B1B6803F007033E
:102C90003A689A4210D9674B1B6823F007026549CE
:102CA0003B6813430B60634B1B6803F007033A68F0
:102CB0009A4201D00123B8E07B681B6803F002034D
:102CC000002B20D07B681B6803F00403002B05D089
:102CD000594B5B68584A43F4E06353607B681B6858
:102CE00003F00803002B05D0534B5B68524A43F4B2
:102CF00060535360504B5B6823F0F0027B689B6825
:102D00004D4913434B607B681B6803F00103002BA4
:102D100040D07B685B68012B07D1474B1B6803F4ED
:102D20000033002B15D101237FE07B685B68022B09
:102D300007D1414B1B6803F00073002B09D101231D
:102D400073E03D4B1B6803F00203002B01D101230C
:102D50006BE0394B5B6823F003027B685B683649A4
:102D600013434B60FFF72CFAF8600AE0FFF728FAEC
:102D70000246FB68D31A41F28832934201D90323F9
:102D800053E02D4B5B6803F00C027B685B689B0093
:102D90009A42EBD1274B1B6803F007033A689A422B
:102DA00010D2244B1B6823F0070222493B681343CF
:102DB0000B60204B1B6803F007033A689A4201D06E
:102DC000012332E07B681B6803F00403002B08D06A
:102DD000194B5B6823F4E0627B68DB681649134398
:102DE0004B607B681B6803F00803002B09D0124B73
:102DF0005B6823F460527B681B69DB000E49134358
:102E00004B6000F021F802460B4B5B681B0903F096
:102E10000F030A49CB5C22FA03F3094A1360094BFA
:102E20001B681846FFF78AF9002318461037BD467D
:102E300080BD00BF0020024000100240783700082B
:102E4000640000206800002080B487B000AF002339
:102E5000FB600023BB6000237B6100237B600023B9
:102E60003B611E4B5B68FB60FB6803F00C03042BAB
:102E700002D0082B03D027E0194B3B6127E0FB6809
:102E80009B0C03F00F03174AD35C7B60FB6803F4D1
:102E90008033002B10D0114B5B685B0C03F00103F7
:102EA000114AD35CBB607B680D4A02FB03F2BB682E
:102EB000B2FBF3F37B6104E07B680C4A02FB03F393
:102EC0007B617B693B6102E0054B3B6100BF3B6975
:102ED00018461C37BD4680BC704700BF001002403A
:102EE00000127A00883700089837000800093D0072
:102EF00080B485B000AF78600A4B1B680A4AA2FB19
:102F000003235B0A7A6802FB03F3FB6000BFFB68E4
:102F10005A1EFA60002BF9D100BF00BF1437BD461E
:102F200080BC704764000020D34D621080B582B031
:102F300000AF78607B68002B01D1012341E07B6802
:102F400093F83D30DBB2002B06D17B68002283F87A
:102F50003C207868FFF75AF87B68022283F83D200E
:102F60007B681A687B6804331946104600F06EFAD5
:102F70007B68012283F846207B68012283F83E208B
:102F80007B68012283F83F207B68012283F8402080
:102F90007B68012283F841207B68012283F842206C
:102FA0007B68012283F843207B68012283F8442058
:102FB0007B68012283F845207B68012283F83D204D
:102FC000002318460837BD4680BD000080B485B098
:102FD00000AF78607B6893F83D30DBB2012B01D005
:102FE000012335E07B68022283F83D207B681B6863
:102FF000DA687B681B6842F00102DA607B681B6854
:10300000164A934209D07B681B68B3F1804F04D005
:103010007B681B68124A934211D17B681B689B68CE
:1030200003F00703FB60FB68062B10D07B681B686E
:103030001A687B681B6842F001021A6007E07B682F
:103040001B681A687B681B6842F001021A60002343
:1030500018461437BD4680BC704700BF002C0140A5
:103060000004004080B582B000AF78607B681B68C8
:103070001B6903F00203022B22D17B681B68DB680B
:1030800003F00203022B1BD17B681B686FF0020266
:103090001A617B6801221A777B681B689B6903F0C1
:1030A0000303002B03D0786800F0B4F905E07868DA
:1030B00000F0A7F9786800F0B6F97B6800221A776B
:1030C0007B681B681B6903F00403042B22D17B6817
:1030D0001B68DB6803F00403042B1BD17B681B68AF
:1030E0006FF004021A617B6802221A777B681B6802
:1030F0009B6903F44073002B03D0786800F08AF9D1
:1031000005E0786800F07DF9786800F08CF97B685C
:1031100000221A777B681B681B6903F00803082BE1
:1031200022D17B681B68DB6803F00803082B1BD1E6
:103130007B681B686FF008021A617B6804221A77AB
:103140007B681B68DB6903F00303002B03D07868FE
:1031500000F060F905E0786800F053F9786800F055
:1031600062F97B6800221A777B681B681B6903F091
:103170001003102B22D17B681B68DB6803F010035F
:10318000102B1BD17B681B686FF010021A617B68E3
:1031900008221A777B681B68DB6903F44073002BF5
:1031A00003D0786800F036F905E0786800F029F976
:1031B000786800F038F97B6800221A777B681B6812
:1031C0001B6903F00103012B0ED17B681B68DB68D0
:1031D00003F00103012B07D17B681B686FF001022C
:1031E0001A617868FEF768FE7B681B681B6903F04C
:1031F0008003802B0ED17B681B68DB6803F08003A3
:10320000802B07D17B681B686FF080021A61786899
:1032100000F06BFA7B681B681B6903F04003402BCE
:103220000ED17B681B68DB6803F04003402B07D19D
:103230007B681B686FF040021A61786800F0FCF848
:103240007B681B681B6903F02003202B0ED17B6871
:103250001B68DB6803F02003202B07D17B681B6809
:103260006FF020021A61786800F036FA00BF083764
:10327000BD4680BD80B584B000AF78603960002362
:10328000FB737B6893F83C30012B01D10223B4E03F
:103290007B68012283F83C207B68022283F83D2072
:1032A0007B681B689B68BB60BB6823F07703BB60CF
:1032B000BB6823F47F43BB607B681B68BA689A6075
:1032C0003B681B68B3F5005F3ED0B3F5005F00F2CA
:1032D0008780B3F5805F00F08680B3F5805F7FD88C
:1032E000702B1AD0702B7BD8602B50D0602B77D8E6
:1032F000502B3CD0502B73D8402B58D0402B6FD83C
:10330000302B64D0302B6BD8202B60D0202B67D88B
:10331000002B5CD0102B5AD062E07B6818683B68A9
:1033200099683B685A683B68DB6800F05EF97B6827
:103330001B689B68BB60BB6843F07703BB607B681E
:103340001B68BA689A604FE07B6818683B689968A8
:103350003B685A683B68DB6800F047F97B681B688C
:103360009A687B681B6842F480429A603CE07B6804
:1033700018683B6859683B68DB681A4600F0BEF87D
:103380007B681B685021184600F015F92CE07B681B
:1033900018683B6859683B68DB681A4600F0DCF83F
:1033A0007B681B686021184600F005F91CE07B680B
:1033B00018683B6859683B68DB681A4600F09EF85D
:1033C0007B681B684021184600F0F5F80CE07B682C
:1033D0001A683B681B681946104600F0ECF803E0D9
:1033E0000123FB7300E000BF7B68012283F83D20CE
:1033F0007B68002283F83C20FB7B18461037BD46D3
:1034000080BD80B483B000AF786000BF0C37BD468C
:1034100080BC704780B483B000AF786000BF0C37C9
:10342000BD4680BC704780B483B000AF786000BFF9
:103430000C37BD4680BC704780B483B000AF786065
:1034400000BF0C37BD4680BC7047000080B485B01B
:1034500000AF786039607B681B68FB607B68254A39
:10346000934207D07B68B3F1804F03D07B68224A38
:10347000934208D1FB6823F07003FB603B685B68F4
:10348000FA681343FB607B681A4A934207D07B6853
:10349000B3F1804F03D07B68174A934208D1FB6891
:1034A00023F44073FB603B68DB68FA681343FB60FE
:1034B000FB6823F080023B685B691343FB607B6819
:1034C000FA681A603B689A687B68DA623B681A6837
:1034D0007B689A627B68074A934203D13B681A690A
:1034E0007B681A637B6801225A6100BF1437BD46AE
:1034F00080BC7047002C01400004004080B487B0BD
:1035000000AFF860B9607A60FB681B6A7B61FB689A
:103510001B6A23F00102FB681A62FB689B693B612E
:103520003B6923F0F0033B617B681B013A6913435D
:103530003B617B6923F00A037B617A69BB681343B3
:103540007B61FB683A699A61FB687A691A6200BF1D
:103550001C37BD4680BC704780B487B000AFF860B0
:10356000B9607A60FB681B6A7B61FB681B6A23F0A9
:103570001002FB681A62FB689B693B613B6923F49C
:1035800070433B617B681B033A6913433B617B6972
:1035900023F0A0037B61BB681B017A6913437B6145
:1035A000FB683A699A61FB687A691A6200BF1C3746
:1035B000BD4680BC704780B485B000AF786039608C
:1035C0007B689B68FB60FB6823F07003FB603A68D4
:1035D000FB68134343F00703FB607B68FA689A605B
:1035E00000BF1437BD4680BC704780B487B000AFC1
:1035F000F860B9607A603B60FB689B687B617B69BF
:1036000023F47F437B613B681A027B681A43BB68E3
:1036100013437A6913437B61FB687A699A6000BF40
:103620001C37BD4680BC704780B485B000AF786061
:1036300039607B6893F83C30012B01D1022341E0D3
:103640007B68012283F83C207B68022283F83D20BE
:103650007B681B685B68FB607B681B689B68BB6062
:10366000FB6823F07003FB603B681B68FA68134338
:10367000FB607B681B68FA685A607B681B68144AA9
:10368000934209D07B681B68B3F1804F04D07B68FC
:103690001B68104A93420CD1BB6823F08003BB60C7
:1036A0003B685B68BA681343BB607B681B68BA6899
:1036B0009A607B68012283F83D207B68002283F8B2
:1036C0003C20002318461437BD4680BC704700BF1D
:1036D000002C01400004004080B483B000AF78604B
:1036E00000BF0C37BD4680BC704780B483B000AFCC
:1036F000786000BF0C37BD4680BC704770B50026AF
:103700000C4D0D4C641BA410A64209D100F022F808
:1037100000260A4D0A4C641BA410A64205D170BDB8
:1037200055F8043B98470136EEE755F8043B9847B7
:103730000136F2E79C3700089C3700089C370008E8
:10374000A037000803460244934200D1704703F8B3
:10375000011BF9E7F8B500BFF8BC08BC9E467047EE
:0C376000F8B500BFF8BC08BC9E467047DE
:10376C00C0F9A4B0999282F880900000000000008B
:10377C000000000001020304060708090203040507
:10378C00060708090A0B0C0D0E0F101001020000A1
:04379C0035010008EB
:0437A000110100080B
:1037A4000100000000000000000000000000000014
:1037B4000100000000000000000000000000000004
:1037C40001000000000000000000000000000000F4
:1037D40001000000000000000000000000000000E4
:1037E40001000000020000000300000004000000CB
:1037F40001000000010000000500000002000000BC
:10380400030000000024F400100000000100000088
:04000005080020C50A
:00000001FF
